S0180000477265656E686F75736553797374656D2E7372656372
S11300000C9434000C9451000C9451000C94510045
S11300100C9451000C9451000C9451000C94510018
S11300200C9451000C9451000C9451000C94510008
S11300300C9451000C94FB000C9451000C9451004E
S11300400C9451000C9451000C9467010C9495018C
S11300500C9451000C9451000C9451000C945100D8
S11300600C9451000C94510011241FBECFEFD8E022
S1130070DEBFCDBF11E0A0E0B1E0E6E6F4E002C0EF
S113008005900D92A036B107D9F721E0A0E6B1E0C2
S113009001C01D92AA3AB207E1F70E9453000C94E2
S11300A031020C940000CF93DF9300D000D000D035
S11300B0CDB7DEB70E94230187E690E00E94BF011E
S11300C0E1E8F0E080818A7F8083808182608083A0
S11300D0EFE6F0E0808181608083789480E091E0B5
S11300E00E94EF0186E0ECE2F1E0DE01119601905E
S11300F00D928A95E1F7809160018823E1F383E111
S113010091E00E94EF014AE0BE016F5F7F4F809152
S11301106301909164010E94FC01CE0101960E944A
S1130120EF018EE191E00E94EF014AE0BE016F5FB2
S11301307F4F80916101909162010E94FC01CE0188
S113014001960E94EF01D7CFFF920F931F93CF9395
S1130150DF938AE391E00E94EF011092600189EB42
S11301600E9432010E944F01C82F0E944F01182F94
S11301700E944F01D82F0E944F01082F0E9459015D
S1130180F82E0E9463018C2F812B8D2B802BF8126B
S113019017C081E0809360018D2F90E09C01220FB5
S11301A0331F880F991F880F991F880F991F820F7B
S11301B0931F800F911D909362018093610115C07C
S11301C0109260018C2F90E09C01220F331F880F46
S11301D0991F880F991F880F991F820F931F810FF2
S11301E0911D9093640180936301DF91CF911F91DE
S11301F00F91FF9008951F920F920FB60F92112442
S11302002F933F934F935F936F937F938F939F931A
S1130210AF93BF93EF93FF9384E591E00E94EF01C6
S11302200E94A400FF91EF91BF91AF919F918F9194
S11302307F916F915F914F913F912F910F900FBEDE
S11302400F901F90189587B18F7C87B988B1806310
S113025088B9E9EBF0E080818C7F808388E9809322
S1130260B800089594EA9093BC009091BC0099233F
S1130270E4F78093BB0084E88093BC008091BC00C9
S11302808823E4F78091B900887F883121F0803495
S113029021F480E0089580E0089581E0089584ECDD
S11302A08093BC008091BC008823E4F78091BB005C
S11302B0089584E88093BC008091BC008823E4F70F
S11302C08091BB00089584E98093BC0008951F9237
S11302D00F920FB60F9211242F938F939F93EF9346
S11302E0FF938091C0002091C6008C71E09167015A
S11302F0EF5FEF7190916601E91739F0E0936701C0
S1130300F0E0E659FE4F208301C082E09091650140
S1130310892B80936501FF91EF919F918F912F918C
S11303200F900FBE0F901F9018951F920F920FB64B
S11303300F9211248F939F93EF93FF9390916901F0
S113034080916801981769F0E0916801EF5FEF719F
S1130350E0936801F0E0E657FE4F80818093C60089
S113036005C0E1ECF0E080818F7D8083FF91EF9107
S11303709F918F910F900FBE0F901F901895109220
S11303806901109268011092670110926601282F8A
S1130390392F33231CF422E02093C00090789093EB
S11303A0C5008093C40088E98093C10086E08093EF
S11303B0C2000895209169012F5F2F719091680107
S11303C02917E1F3E22FF0E0E657FE4F80832093F4
S11303D06901E1ECF0E08081806280830895CF932D
S11303E0DF93EC0103C021960E94DA018881811118
S11303F0FACFDF91CF910895BB274A3031F4992386
S113040022F4BDE2909581959F4F0C940802BB277E
S1130410FB015527AA27880F991FAA1FA41710F0BC
S1130420A41B83955051B9F7A05DAA3308F0A95DC8
S1130430A193009779F7B111B1931192CB010C9468
S11304402102DC01FC01672F71917723E1F73297D8
S113045004C07C916D9370836291AE17BF07C8F39B
S10904600895F894FFCF9B
S1130466477265656E686F7573653A20696E69745F
S11304760D0A0048756D69646974793A20005465FB
S11304866D70657261747572653A20003030303073
S11304963000524120002D2D200072656164696E82
S11304A66720646174612066726F6D20444854311C
S11304B6320D0A006F766572666C6F770D0A00005E
S9030000FC
