S0180000477265656E686F75736553797374656D2E7372656372
S11300000C9434000C9451000C9451000C94510045
S11300100C9451000C9451000C9451000C94510018
S11300200C9451000C9451000C9451000C94510008
S11300300C9451000C9429030C9451000C9451001D
S11300400C9467030C9451000C94F2030C94200458
S11300500C9451000C948B030C9451000C9451009B
S11300600C9451000C94510011241FBECFEFD8E022
S1130070DEBFCDBF11E0A0E0B1E0E6E9FBE002C0E5
S113008005900D92AE31B107D9F721E0AEE1B1E0B0
S113009001C01D92AD36B207E1F70E94E1010C9454
S11300A0C9050C940000FC01408121E030E002C04D
S11300B0220F331F6A95E2F7242B20830895FC0155
S11300C0408121E030E002C0220F331F6A95E2F73D
S11300D0242B2083089585B1826085B985E08A95B3
S11300E0F1F7000085B18D7F85B90895CF93C82FAE
S11300F0662321F085B1816085B903C085B18E7F07
S113010085B98AB180618AB98AB180628AB98AB1B3
S113011080648AB98AB180688AB98BB18F778BB9C8
S11301208BB18F7B8BB98BB18F7D8BB98BB18F7E6C
S11301308BB9CC231CF48BB180688BB9C6FF03C088
S11301408BB180648BB9C5FF03C08BB180628BB95E
S1130150C4FF03C08BB180618BB90E946B008BB16B
S11301608F778BB98BB18F7B8BB98BB18F7D8BB92B
S11301708BB18F7E8BB9C3FF03C08BB180688BB901
S1130180C2FF03C08BB180648BB9C1FF03C08BB1C4
S113019080628BB9C0FF03C08BB180618BB90E94B0
S11301A06B008BB180618BB98BB180628BB98BB1E1
S11301B080648BB98BB180688BB987EB9BE0019726
S11301C0F1F700C00000CF91089560E00E9476002E
S11301D00895611104C080580E94E5000895805478
S11301E00E94E500089581E00E94E500089561E021
S11301F00E9476000895CF93DF93FC0103C00E9410
S1130200F700FE01EF01219680818111F8CFDF9183
S1130210CF910895CF93C82F84B1816084B98AB1F6
S113022080628AB984B1826084B98AB180618AB9F2
S11302308AB180628AB98AB180648AB98AB18068D5
S11302408AB98FEF99EF0197F1F700C000008BB1E5
S113025080628BB98BB180618BB90E946B008FE196
S11302609EE40197F1F700C000000E946B008FEF3D
S113027090E00197F1F700C000000E946B008FEF3F
S113028090E00197F1F700C000008BB18F7E8BB92D
S11302900E946B008FEF90E00197F1F700C000001F
S11302A088E20E94E50088E00E94E5000E94F300D5
S11302B086E00E94E5008C2F0E94E500CF9108950E
S11302C0CF93DF93CDB7DEB762970FB6F894DEBF56
S11302D00FBECDBF82E1EBE0F1E0DE0111960190AB
S11302E00D928A95E1F760E080E00E94E9004AE01F
S11302F0BE016F5F7F4F80912601909127010E947C
S1130300940582E091E00E94FB00CE0101960E94D8
S1130310FB0060E089E00E94E9004AE0BE016F5FF3
S11303207F4F80912401909125010E94940585E0DE
S113033091E00E94FB00CE0101960E94FB0061E067
S113034080E00E94E9004AE0BE016F5F7F4F809128
S11303502001909121010E94940588E091E00E947F
S1130360FB00CE0101960E94FB0062960FB6F89442
S1130370DEBF0FBECDBFDF91CF910895ECE7F0E073
S113038080818064808380818F7780838081807F77
S11303908083EAE7F0E080818068808380818860E0
S11303A08083808187608083089570E08617970733
S11303B020F488B1806188B9089588B18F7E88B9A6
S11303C008950E94A40387E690E00E944A048CE00A
S11303D00E940A0180E40E94E50080E80E94E50092
S11303E064E084E290E00E94530062E087E290E0DF
S11303F00E94530063E087E290E00E94530064E0AF
S113040085E290E00E945F0062E088E290E00E9452
S11304105F0063E088E290E00E945F000E94BE01FA
S113042085B58D7F85BD85B5856085BDEEE6F0E03B
S1130430808181608083E1E8F0E080818B7F80832C
S1130440808183608083EFE6F0E080818160808337
S11304500E94600178940F2EF0EFEF2EF8EDFF2E3E
S1130460F02D00EF18EDC0EFD8ED80912201882324
S113047059F08091260190912701C817D90709F4F2
S1130480CE0110922201EC0180912301882359F0BE
S113049080912401909125010817190709F4C801D6
S11304A0109223018C0180911F018823F1F2809125
S11304B0200190912101E816F90609F07C016CE213
S11304C00E94D50110921F01D0CFFF920F931F936A
S11304D0CF93DF931092230188EB0E94B303813002
S11304E021F40E94EE0380E03DC080E00E94D0032E
S11304F089EB0E94B3030E94DA03F82E0E94DA0308
S1130500C82F0E94DA03082F0E94DA03182F0E94D2
S1130510E403D82F0E94EE038D2F90E02C2F30E0BF
S11305202F0D311D200F311D210F311D821793070F
S1130530B9F481E080932301802F90E09C01220F85
S1130540331F880F991F880F991F880F991F820FD7
S1130550931F810F911D909325018093240102C064
S113056010922301DF91CF911F910F91FF90089575
S113057080FF1DC096958795BC01660F771F880F75
S1130580991F880F991F880F991F680F791F6B5F38
S11305907F4F80E090E00E9406052AE939E949E9A5
S11305A05FE30E9465040E94D704CB0108959695E9
S11305B08795BC01660F771F880F991F880F991FB5
S11305C0880F991F680F791F80E090E00E9406054C
S11305D02AE939E949E95FE30E9465040E94D704E6
S11305E0CB010895CF93DF9310921F0180911E01D8
S11305F0882319F0813069F027C086E40E94B30390
S113060081E10E94D0030E94EE0381E080931E01E9
S11306101DC087E40E94B3030E94DA0380E0C82F60
S1130620D82F0E94E403C80FD11D0E94EE03CE010F
S11306300E94B802909321018093200181E080936D
S11306401F0110921E0102C010921E01DF91CF9172
S113065008951F920F920FB60F9211242F933F9378
S11306604F935F936F937F938F939F93AF93BF93B6
S1130670EF93FF93EAE7F0E08081806480838091C8
S1130680000190910101049741F40E94F2020E943A
S11306906502109201011092000180910001909175
S11306A0010101969093010180930001FF91EF9164
S11306B0BF91AF919F918F917F916F915F914F9176
S11306C03F912F910F900FBE0F901F9018951F927E
S11306D00F920FB60F9211242F933F934F935F9372
S11306E06F937F938F939F93AF93BF93EF93FF93F6
S11306F00E946001FF91EF91BF91AF919F918F9103
S11307007F916F915F914F913F912F910F900FBE09
S11307100F901F9018951F920F920FB60F921124ED
S11307208F939F9380917800909179009093270103
S11307308093260181E0809322019F918F910F90F5
S11307400FBE0F901F90189587B18F7C87B988B121
S1130750806388B9E9EBF0E080818C7F808388E94D
S11307608093B800089594EA9093BC009091BC00E3
S11307709923E4F78093BB0084E88093BC008091C4
S1130780BC008823E4F78091B900887F883121F088
S1130790803421F480E0089580E0089581E0089594
S11307A08093BB0084E88093BC008091BC008823C4
S11307B0E4F7089584EC8093BC008091BC00882306
S11307C0E4F78091BB00089584E88093BC00809195
S11307D0BC008823E4F78091BB00089584E98093EA
S11307E0BC0008951F920F920FB60F9211242F93FD
S11307F08F939F93EF93FF938091C0002091C60045
S11308008C71E0912A01EF5FEF7190912901E91752
S113081039F0E0932A01F0E0E35DFE4F208301C04C
S113082082E090912801892B80932801FF91EF9118
S11308309F918F912F910F900FBE0F901F9018953D
S11308401F920F920FB60F9211248F939F93EF93E1
S1130850FF9390912C0180912B01981769F0E091FE
S11308602B01EF5FEF71E0932B01F0E0E35BFE4FB0
S113087080818093C60005C0E1ECF0E080818F7D2B
S11308808083FF91EF919F918F910F900FBE0F90F6
S11308901F90189510922C0110922B0110922A018E
S11308A010922901282F392F33231CF422E020939E
S11308B0C00090789093C5008093C40088E9809329
S11308C0C10086E08093C20008950E9479040C94CC
S11308D05A050E94530558F00E944C0540F029F433
S11308E05F3F29F00C94430551110C948E050C9430
S11308F049050E946B0568F39923B1F3552391F3DD
S1130900951B550BBB27AA2762177307840738F07A
S11309109F5F5F4F220F331F441FAA1FA9F335D0D7
S11309200E2E3AF0E0E832D091505040E695001C8B
S1130930CAF72BD0FE2F29D0660F771F881FBB1F45
S1130940261737074807AB07B0E809F0BB0B802D23
S1130950BF01FF2793585F4F3AF09E3F510578F04F
S11309600C9443050C948E055F3FE4F3983ED4F356
S1130970869577956795B795F7959F5FC9F7880F23
S1130980911D9695879597F90895E1E0660F771F75
S1130990881FBB1F621773078407BA0720F0621B06
S11309A0730B840BBA0BEE1F88F7E09508950E9431
S11309B0730588F09F5798F0B92F9927B751B0F075
S11309C0E1F0660F771F881F991F1AF0BA95C9F7CF
S11309D014C0B13091F00E948D05B1E008950C94DB
S11309E08D05672F782F8827B85F39F0B93FCCF38E
S11309F0869577956795B395D9F73EF4909580954C
S1130A00709561957F4F8F4F9F4F0895E89409C06B
S1130A1097FB3EF490958095709561957F4F8F4F2D
S1130A209F4F9923A9F0F92F96E9BB279395F69543
S1130A30879577956795B795F111F8CFFAF4BB0FC1
S1130A4011F460FF1BC06F5F7F4F8F4F9F4F16C025
S1130A50882311F096E911C0772321F09EE8872FAF
S1130A60762F05C0662371F096E8862F70E060E06B
S1130A702AF09A95660F771F881FDAF7880F9695E4
S1130A80879597F9089597F99F6780E870E060E08B
S1130A9008959FEF80EC089500240A941616170613
S1130AA018060906089500240A941216130614065B
S1130AB005060895092E0394000C11F4882352F0BE
S1130AC0BB0F40F4BF2B11F460FF04C06F5F7F4F76
S1130AD08F4F9F4F089557FD9058440F551F59F05D
S1130AE05F3F71F04795880F97FB991F61F09F3F17
S1130AF079F087950895121613061406551FF2CF40
S1130B004695F1DF08C0161617061806991FF1CF8F
S1130B1086957105610508940895E894BB276627B6
S1130B207727CB0197F90895BB274A3031F49923ED
S1130B3022F4BDE2909581959F4F0C94A005BB27AC
S1130B40FB015527AA27880F991FAA1FA41710F085
S1130B50A41B83955051B9F7A05DAA3308F0A95D91
S1130B60A193009779F7B111B1931192CB010C9431
S1130B70B905DC01FC01672F71917723E1F7329706
S1130B8004C07C916D9370836291AE17BF07C8F364
S1090B900895F894FFCF64
S1130B960100483A00543A004C3A003030303030C4
S1110BA63030303030303030303030300000FD
S9030000FC
