S0180000477265656E686F75736553797374656D2E7372656372
S11300000C9434000C9451000C9451000C94510045
S11300100C9451000C9451000C9451000C94510018
S11300200C9451000C9451000C9451000C94510008
S11300300C9451000C94E2030C9451000C94510064
S11300400C9436040C9451000C94BB010C94E901FB
S11300500C9451000C945A040C9451000C945100CB
S11300600C9451000C94510011241FBECFEFD8E022
S1130070DEBFCDBF11E0A0E0B1E0E2EBFDE002C0E5
S113008005900D92AE31B107D9F721E0AEE1B1E0B0
S113009001C01D92AD36B207E1F70E9488030C94AB
S11300A0D7060C940000FC01408121E030E002C03E
S11300B0220F331F6A95E2F7242B20830895FC0155
S11300C0908121E030E002C0220F331F6A95E2F7ED
S11300D02095292320830895FC01408121E030E00C
S11300E002C0220F331F6A95E2F7242B2083089560
S11300F085B1826085B985E08A95F1F7000085B104
S11301008D7F85B90895CF93C82F662321F085B1DB
S1130110816085B903C085B18E7F85B98AB180615C
S11301208AB98AB180628AB98AB180648AB98AB18B
S113013080688AB98BB18F778BB98BB18F7B8BB980
S11301408BB18F7D8BB98BB18F7E8BB9CC231CF493
S11301508BB180688BB9C6FF03C08BB180648BB947
S1130160C5FF03C08BB180628BB9C4FF03C08BB1E0
S113017080618BB90E9478008BB18F778BB98BB17A
S11301808F7B8BB98BB18F7D8BB98BB18F7E8BB904
S1130190C3FF03C08BB180688BB9C2FF03C08BB1AE
S11301A080648BB9C1FF03C08BB180628BB9C0FF7F
S11301B003C08BB180618BB90E9478008BB18061E0
S11301C08BB98BB180628BB98BB180648BB98BB1E5
S11301D080688BB987EB9BE00197F1F700C00000C2
S11301E0CF91089560E00E9483000895611104C0D6
S11301F080580E94F200089580540E94F2000895ED
S113020081E00E94F200089561E00E948300089555
S1130210CF93DF93FC0103C00E940401FE01EF01B0
S1130220219680818111F8CFDF91CF910895CF93EA
S1130230C82F84B1816084B98AB180628AB984B1DB
S1130240826084B98AB180618AB98AB180628AB9CC
S11302508AB180648AB98AB180688AB98FEF99EFCC
S11302600197F1F700C000008BB180628BB98BB1AC
S113027080618BB90E9478008FE19EE40197F1F7C9
S113028000C000000E9478008FEF90E00197F1F722
S113029000C000000E9478008FEF90E00197F1F712
S11302A000C000008BB18F7E8BB90E9478008FEF65
S11302B090E00197F1F700C0000088E20E94F2008C
S11302C088E00E94F2000E94000186E00E94F20091
S11302D08C2F0E94F200CF91089587B18F7C87B94B
S11302E088B1806388B9E9EBF0E080818C7F8083FA
S11302F088E98093B800089594EA9093BC009091A3
S1130300BC009923E4F78093BB0084E88093BC008D
S11303108091BC008823E4F78091B900887F8831FC
S113032021F0803421F480E0089580E0089581E094
S113033008958093BB0084E88093BC008091BC0046
S11303408823E4F7089584EC8093BC008091BC007A
S11303508823E4F78091BB00089584E88093BC006F
S11303608091BC008823E4F78091BB00089584E960
S11303708093BC0008951F920F920FB60F92112420
S11303802F938F939F93EF93FF938091C0002091BD
S1130390C6008C71E0912001EF5FEF7190911F0115
S11303A0E91739F0E0932001F0E0ED5DFE4F208382
S11303B001C082E090911E01892B80931E01FF9160
S11303C0EF919F918F912F910F900FBE0F901F90DF
S11303D018951F920F920FB60F9211248F939F932B
S11303E0EF93FF939091220180912101981769F076
S11303F0E0912101EF5FEF71E0932101F0E0ED5B0B
S1130400FE4F80818093C60005C0E1ECF0E080815E
S11304108F7D8083FF91EF919F918F910F900FBEFD
S11304200F901F90189510922201109221011092A2
S1130430200110921F01282F392F33231CF422E0AE
S11304402093C00090789093C5008093C40088E9FD
S11304508093C10086E08093C2000895CF93DF9318
S1130460CDB7DEB762970FB6F894DEBF0FBECDBF2F
S113047082E1EBE0F1E0DE01119601900D928A95A4
S1130480E1F760E080E00E94F60082E091E00E94E3
S1130490080120916A0130916B01ADECBCEC0E9423
S11304A093064AE0BE016F5F7F4F969587959695B8
S11304B08795969587950E94A206CE0101960E9483
S11304C008018CE20E940401E0916A01F0916B0141
S11304D09F01ADECBCEC0E9493069695879596958A
S11304E08795969587959C01220F331F880F991F36
S11304F0880F991F880F991F820F931F4AE0BE012E
S11305006F5F7F4F9F01281B390BC9010E94A20610
S1130510CE0101960E94080160E089E00E94F60085
S113052085E091E00E940801209168013091690101
S1130530ADECBCEC0E9493064AE0BE016F5F7F4FB6
S11305409695879596958795969587950E94A20688
S1130550CE0101960E9408018CE20E940401E09100
S11305606801F09169019F01ADECBCEC0E94930617
S11305709695879596958795969587959C01220FD4
S1130580331F880F991F880F991F880F991F820F97
S1130590931F4AE0BE016F5F7F4F9F01281B390BF9
S11305A0C9010E94A206CE0101960E94080161E0E1
S11305B080E00E94F60088E091E00E94080120910A
S11305C0660130916701ADECBCEC0E9493064AE0F1
S11305D0BE016F5F7F4F9695879596958795969503
S11305E087950E94A206CE0101960E9408018CE222
S11305F00E940401E0916601F09167019F01ADEC56
S1130600BCEC0E949306969587959695879596954A
S113061087959C01220F331F880F991F880F991FFC
S1130620880F991F820F931F4AE0BE016F5F7F4FAF
S11306309F01281B390BC9010E94A206CE01019615
S11306400E94080162960FB6F894DEBF0FBECDBFBC
S1130650DF91CF9108958CE00E94170180E40E94FD
S1130660F20080E80E94F2000E942E02089564E0E5
S113067084E290E00E94530062E087E290E00E94EE
S1130680530063E087E290E00E94530064E085E257
S113069090E00E946C0062E088E290E00E946C00AE
S11306A063E088E290E00E946C0008950E946D016E
S11306B087E690E00E9413020E9437036AE770E025
S11306C08CE790E00E9473040E942B0362E084E2B2
S11306D090E00E9461057894089570E0861797076A
S11306E058F428B181E090E002C0880F991F4A9520
S11306F0E2F7822B88B9089528B181E090E002C026
S1130700880F991F4A95E2F78095822388B9089546
S11307100E9456030FEF1FEFCC24CA94DC2CEE2466
S1130720EA94FE2C80916401882391F0C0916A01BF
S1130730D0916B01EC16FD0649F042E060E980912E
S11307406601909167010E946D037E01109264011D
S113075080916501882391F0C0916801D09169016D
S1130760CC16DD0649F043E068EC80916601909177
S113077067010E946D036E0110926501809163010F
S1130780882381F2C0916601D09167010C171D077F
S1130790A1F0CC3281E0D80730F444E06CE2CE0121
S11307A00E946D030BC0C13283E0D80738F062E0C9
S11307B085E290E00E94450501C0E80110926301C2
S11307C08E01B0CF1F920F920FB60F9211242F9368
S11307D03F934F935F936F937F938F939F93AF93C5
S11307E0BF93EF93FF93EAE7F0E080818064808316
S11307F080910001909101010497F1F483E691E066
S11308000E940E0590E020916301222321F0909331
S113081067018093660185E691E00E94880490E078
S113082020916501222321F090936901809368014E
S11308301092010110920001809100019091010138
S113084001969093010180930001FF91EF91BF9174
S1130850AF919F918F917F916F915F914F913F9154
S11308602F910F900FBE0F901F9018951F920F920B
S11308700FB60F9211242F933F934F935F936F936F
S11308807F938F939F93AF93BF93EF93FF930E94B4
S11308902E02FF91EF91BF91AF919F918F917F9124
S11308A06F915F914F913F912F910F900FBE0F90D9
S11308B01F9018951F920F920FB60F9211248F93C9
S11308C09F93809178009091790090936B0180932D
S11308D06A0181E0809364019F918F910F900FBE14
S11308E00F901F901895DC01FB018C9180648C9310
S11308F08C918F778C938C91807F8C93808180688E
S1130900808380818860808380818760808308956C
S1130910DF92EF92FF920F931F93CF93DF938C019B
S1130920FC01108288EB0E947C01813021F40E943A
S1130930B70180E031C080E00E94990189EB0E94F8
S11309407C010E94A301D82E0E94A301C82F0E94FB
S1130950A301D82F0E94A301F82E0E94AD01E82E16
S11309600E94B7018E2D90E02C2F30E02D0D311D0B
S11309702D0F311D2F0D311D8217930721F481E0B6
S1130980F801808302C0F8011082DD0F8D2F880FDB
S1130990880FD80F8D2F8F0DDF91CF911F910F915D
S11309A0FF90EF90DF90089580FF1DC09695879586
S11309B0BC01660F771F880F991F880F991F880F36
S11309C0991F680F791F6B5F7F4F80E090E00E9452
S11309D005062AE939E949E95FE30E9464050E94B2
S11309E0D605CB01089596958795BC01660F771FB0
S11309F0880F991F880F991F880F991F680F791FF7
S1130A0080E090E00E9405062AE939E949E95FE3BC
S1130A100E9464050E94D605CB0108950F931F938D
S1130A20CF93DF93EC01188280916C01882319F035
S1130A30813071F022C086E40E947C0181E10E9431
S1130A4099010E94B70181E080936C018FEF18C077
S1130A5087E40E947C010E94A30100E010E00E9450
S1130A60AD01080F111D0E94B70181E08883109227
S1130A706C01C8010E94D40403C010926C018FEF72
S1130A80DF91CF911F910F910895CF93C62F85E2E7
S1130A9090E00E946C0087E592E00197F1F700C0B6
S1130AA000006C2F85E290E00E945F0098EC9A951C
S1130AB0F1F789E990E10197F1F700C00000CF91C7
S1130AC008950E94530008950E9478050C945906D5
S1130AD00E94520658F00E944B0640F029F45F3FF2
S1130AE029F00C94420651110C948D060C9448067E
S1130AF00E946A0668F39923B1F3552391F3951B79
S1130B00550BBB27AA2762177307840738F09F5F2A
S1130B105F4F220F331F441FAA1FA9F335D00E2E97
S1130B203AF0E0E832D091505040E695001CCAF704
S1130B302BD0FE2F29D0660F771F881FBB1F2617C7
S1130B4037074807AB07B0E809F0BB0B802DBF019E
S1130B50FF2793585F4F3AF09E3F510578F00C946D
S1130B6042060C948D065F3FE4F3983ED4F38695D9
S1130B7077956795B795F7959F5FC9F7880F911D8E
S1130B809695879597F90895E1E0660F771F881F7A
S1130B90BB1F621773078407BA0720F0621B730B2D
S1130BA0840BBA0BEE1F88F7E09508950E94720635
S1130BB088F09F5798F0B92F9927B751B0F0E1F01A
S1130BC0660F771F881F991F1AF0BA95C9F714C0CA
S1130BD0B13091F00E948C06B1E008950C948C061B
S1130BE0672F782F8827B85F39F0B93FCCF3869503
S1130BF077956795B395D9F73EF490958095709560
S1130C0061957F4F8F4F9F4F0895E89409C097FBDC
S1130C103EF490958095709561957F4F8F4F9F4FCF
S1130C209923A9F0F92F96E9BB279395F695879513
S1130C3077956795B795F111F8CFFAF4BB0F11F4D6
S1130C4060FF1BC06F5F7F4F8F4F9F4F16C088237D
S1130C5011F096E911C0772321F09EE8872F762FB3
S1130C6005C0662371F096E8862F70E060E02AF0F4
S1130C709A95660F771F881FDAF7880F96958795E0
S1130C8097F9089597F99F6780E870E060E0089508
S1130C909FEF80EC089500240A9416161706180690
S1130CA00906089500240A9412161306140605066C
S1130CB00895092E0394000C11F4882352F0BB0FFD
S1130CC040F4BF2B11F460FF04C06F5F7F4F8F4F60
S1130CD09F4F089557FD9058440F551F59F05F3F9B
S1130CE071F04795880F97FB991F61F09F3F79F04A
S1130CF087950895121613061406551FF2CF4695CC
S1130D00F1DF08C0161617061806991FF1CF86954D
S1130D107105610508940895E894BB276627772731
S1130D20CB0197F90895A29FB001B39FC001A39F7F
S1130D30700D811D1124911DB29F700D811D112410
S1130D40911D0895BB274A3031F4992322F4BDE262
S1130D50909581959F4F0C94AE06BB27FB015527B8
S1130D60AA27880F991FAA1FA41710F0A41B839504
S1130D705051B9F7A05DAA3308F0A95DA19300977B
S1130D8079F7B111B1931192CB010C94C706DC0130
S1130D90FC01672F71917723E1F7329704C07C91AE
S1130DA06D9370836291AE17BF07C8F30895F894EA
S1050DB0FFCF6F
S1130DB20100483A00543A004C3A003030303030A6
S1110DC23030303030303030303030300000DF
S9030000FC
