S0180000477265656E686F75736553797374656D2E7372656372
S11300000C9434000C9451000C9451000C94510045
S11300100C9451000C9451000C9451000C94510018
S11300200C9451000C9451000C9451000C94510008
S11300300C9451000C9407040C9451000C9451003E
S11300400C9440040C9451000C94B2040C94E004FD
S11300500C9451000C9451000C9451000C945100D8
S11300600C9451000C94510011241FBECFEFD8E022
S1130070DEBFCDBF11E0A0E0B1E0E2EEF2E102C0EC
S113008005900D92AA37B107D9F721E0AAE7B1E0AC
S113009001C01D92A83CB207E1F70E941D020C9416
S11300A06F090C94000085B1826085B985E08A955A
S11300B0F1F7000085B18D7F85B90895CF93C82FDE
S11300C0662321F085B1816085B903C085B18E7F37
S11300D085B98AB180618AB98AB180628AB98AB1E4
S11300E080648AB98AB180688AB98BB18F778BB9F9
S11300F08BB18F7B8BB98BB18F7D8BB98BB18F7E9D
S11301008BB9CC231CF48BB180688BB9C6FF03C0B8
S11301108BB180648BB9C5FF03C08BB180628BB98E
S1130120C4FF03C08BB180618BB90E9453008BB1B3
S11301308F778BB98BB18F7B8BB98BB18F7D8BB95B
S11301408BB18F7E8BB9C3FF03C08BB180688BB931
S1130150C2FF03C08BB180648BB9C1FF03C08BB1F4
S113016080628BB9C0FF03C08BB180618BB90E94E0
S113017053008BB180618BB98BB180628BB98BB129
S113018080648BB98BB180688BB987EB9BE0019756
S1130190F1F700C00000CF91089560E00E945E0076
S11301A00895611104C080580E94CD0008958054C0
S11301B00E94CD00089581E00E94CD00089561E081
S11301C00E945E000895CF93DF93FC0103C00E9458
S11301D0DF00FE01EF01219680818111F8CFDF91CC
S11301E0CF910895CF93C82F84B1816084B98AB127
S11301F080628AB984B1826084B98AB180618AB923
S11302008AB180628AB98AB180648AB98AB1806805
S11302108AB98FEF99EF0197F1F700C000008BB115
S113022080628BB98BB180618BB90E9453008FE1DE
S11302309EE40197F1F700C000000E9453008FEF85
S113024090E00197F1F700C000000E9453008FEF87
S113025090E00197F1F700C000008BB18F7E8BB95D
S11302600E9453008FEF90E00197F1F700C0000067
S113027088E20E94CD0088E00E94CD000E94DB004D
S113028086E00E94CD008C2F0E94CD00CF9108956E
S11302900F931F93CF93DF93CDB7DEB762970FB65B
S11302A0F894DEBF0FBECDBF82E1E0E2F1E08E0143
S11302B00F5F1F4FD80101900D928A95E1F760E01E
S11302C080E00E94D10040918101509182019A0105
S11302D0ADECBCEC0E94760696958795969587952D
S11302E0969587959C01220F331F880F991F880FBD
S11302F0991F880F991F820F931F9A01281B390B8E
S1130300C9019F932F939A010E947606969587952B
S113031096958795969587959F938F9382E091E024
S11303209F938F931F930F930E948506C8010E9489
S1130330E30060E089E00E94D10040917F01509188
S113034080019A01ADECBCEC0E94760696958795E7
S113035096958795969587959C01220F331F880F54
S1130360991F880F991F880F991F820F931F9A0155
S1130370281B390BC9019F932F939A010E9476067B
S11303809695879596958795969587959F938F9340
S11303908CE091E09F938F931F930F930E948506A7
S11303A0C8010E94E30061E080E00E94D100409116
S11303B07C0150917D019A01ADECBCEC0E94760663
S11303C09695879596958795969587959C01220F86
S11303D0331F880F991F880F991F880F991F820F49
S11303E0931F9A01281B390BC9019F932F939A01DC
S11303F00E94760696958795969587959695879506
S11304009F938F9386E191E09F938F931F930F9314
S11304100E948506C8010E94E3000FB6F894DEBF6F
S11304200FBECDBF62960FB6F894DEBF0FBECDBF30
S1130430DF91CF911F910F910895CF93DF93CDB7A3
S1130440DEB762970FB6F894DEBF0FBECDBF0E9431
S1130450640487E690E00E940A058CE00E94F200A2
S113046080E40E94CD0080E80E94CD0085B58D7F98
S113047085BD85B5856085BDEEE6F0E0808181604F
S11304808083E1E8F0E080818B7F808380818360DA
S11304908083EFE6F0E0808181608083789482E35A
S11304A091E00E943A050E94480182E1E0E2F1E015
S11304B0DE01119601900D928A95E1F70F2EF0EF6F
S11304C0AF2EF8EDBF2EF02D0F2EF0EFCF2EF8ED5E
S11304D0DF2EF02D0F2EF0EFEF2EF8EDFF2EF02D86
S11304E080917E01882309F478C0009181011091E4
S11304F08201E016F106A1F19801ADECBCEC0E947A
S11305007606AC0156954795569547955695479569
S11305109A01220F331FCA01880F991F880F991F50
S1130520880F991F820F931F9801281B390BC9014B
S11305309F932F935F934F938DE391E09F938F93BA
S1130540CE0101967C019F938F930E948506C7017B
S11305500E943A050FB6F894DEBF0FBECDBF7801F6
S113056000917F0110918001C016D106A1F198017C
S1130570ADECBCEC0E947606AC01569547955695B9
S11305804795569547959A01220F331FCA01880F44
S1130590991F880F991F880F991F820F931F980125
S11305A0281B390BC9019F932F935F934F938FE4BB
S11305B091E09F938F93CE0101966C019F938F934B
S11305C00E948506C6010E943A050FB6F894DEBF64
S11305D00FBECDBF680110927E0180917B018823FC
S11305E009F47ECF00917C0110917D01A016B10623
S11305F0A1F19801ADECBCEC0E947606AC015695D5
S1130600479556954795569547959A01220F331F5E
S1130610CA01880F991F880F991F880F991F820F8D
S1130620931F9801281B390BC9019F932F935F9344
S11306304F9384E691E09F938F93CE0101965C01E2
S11306409F938F930E948506C5010E943A050FB6B9
S1130650F894DEBF0FBECDBF580110927B0140CF8E
S1130660FF920F931F93CF93DF9310927E0188EB39
S11306700E947304813021F40E94AE0480E050C0D3
S113068080E00E94900489EB0E9473040E949A0403
S1130690182F0E949A04D82F0E949A04F82E0E94C0
S11306A09A04082F0E94A404C82F0E94AE048C2F21
S11306B090E02D2F30E0210F311D2F0D311D200F23
S11306C0311D8217930751F581E080937E018F2DB0
S11306D090E09C01220F331F880F991F880F991FE8
S11306E0880F991F820F931F800F911D9093800193
S11306F080937F01812F90E09C01220F331F880F8C
S1130700991F880F991F880F991F820F931F8D0FB0
S1130710911D909382018093810102C010927E0109
S1130720DF91CF911F910F91FF90089580FF1DC01D
S113073096958795BC01660F771F880F991F880FC0
S1130740991F880F991F680F791F6B5F7F4F80E097
S113075090E00E94E8052AE939E949E95FE30E944B
S113076047050E94B905CB01089596958795BC016C
S1130770660F771F880F991F880F991F880F991F7D
S1130780680F791F80E090E00E94E8052AE939E9C2
S113079049E95FE30E9447050E94B905CB0108952A
S11307A0CF93DF9310927B0180917A01882319F013
S11307B0813069F027C086E40E94730481E10E94BD
S11307C090040E94AE0481E080937A011DC087E406
S11307D00E9473040E949A0480E0C82FD82F0E94BC
S11307E0A404C80FD11D0E94AE04CE010E9496033A
S11307F090937D0180937C0181E080937B01109232
S11308007A0102C010927A01DF91CF9108951F926C
S11308100F920FB60F9211242F933F934F935F9330
S11308206F937F938F939F93AF93BF93EF93FF93B4
S11308308091000190910101049741F40E94D0033A
S11308400E94300310920101109200018091000176
S11308509091010101969093010180930001FF9111
S1130860EF91BF91AF919F918F917F916F915F9124
S11308704F913F912F910F900FBE0F901F9018959D
S11308801F920F920FB60F9211242F933F934F9301
S11308905F936F937F938F939F93AF93BF93EF93E4
S11308A0FF930E944801FF91EF91BF91AF919F91F7
S11308B08F917F916F915F914F913F912F910F9005
S11308C00FBE0F901F90189587B18F7C87B988B1A0
S11308D0806388B9E9EBF0E080818C7F808388E9CC
S11308E08093B800089594EA9093BC009091BC0062
S11308F09923E4F78093BB0084E88093BC00809143
S1130900BC008823E4F78091B900887F883121F006
S1130910803421F480E0089580E0089581E0089512
S11309208093BB0084E88093BC008091BC00882342
S1130930E4F7089584EC8093BC008091BC00882384
S1130940E4F78091BB00089584E88093BC00809113
S1130950BC008823E4F78091BB00089584E9809368
S1130960BC0008951F920F920FB60F9211242F937B
S11309708F939F93EF93FF938091C0002091C600C3
S11309808C71E0918501EF5FEF7190918401E9171B
S113099039F0E0938501F0E0E857FE4F208301C071
S11309A082E090918301892B80938301FF91EF91E1
S11309B09F918F912F910F900FBE0F901F901895BC
S11309C01F920F920FB60F9211248F939F93EF9360
S11309D0FF939091870180918601981769F0E091C7
S11309E08601EF5FEF71E0938601F0E0E855FE4F7A
S11309F080818093C60005C0E1ECF0E080818F7DAA
S1130A008083FF91EF919F918F910F900FBE0F9074
S1130A101F901895109287011092860110928501FB
S1130A2010928401282F392F33231CF422E02093C1
S1130A30C00090789093C5008093C40088E98093A7
S1130A40C10086E08093C2000895209187012F5F42
S1130A502F71909186012917E1F3E22FF0E0E85518
S1130A60FE4F808320938701E1ECF0E08081806277
S1130A7080830895CF93DF93EC0103C021960E94F5
S1130A80250588818111FACFDF91CF9108950E94C5
S1130A905B050C943C060E94350658F00E942E0615
S1130AA040F029F45F3F29F00C94250651110C9471
S1130AB070060C942B060E944D0668F39923B1F33B
S1130AC0552391F3951B550BBB27AA276217730770
S1130AD0840738F09F5F5F4F220F331F441FAA1F04
S1130AE0A9F335D00E2E3AF0E0E832D091505040C0
S1130AF0E695001CCAF72BD0FE2F29D0660F771F6E
S1130B00881FBB1F261737074807AB07B0E809F053
S1130B10BB0B802DBF01FF2793585F4F3AF09E3FD8
S1130B20510578F00C9425060C9470065F3FE4F3AD
S1130B30983ED4F3869577956795B795F7959F5F1B
S1130B40C9F7880F911D9695879597F90895E1E067
S1130B50660F771F881FBB1F621773078407BA07C6
S1130B6020F0621B730B840BBA0BEE1F88F7E09521
S1130B7008950E94550688F09F5798F0B92F992739
S1130B80B751B0F0E1F0660F771F881F991F1AF074
S1130B90BA95C9F714C0B13091F00E946F06B1E064
S1130BA008950C946F06672F782F8827B85F39F063
S1130BB0B93FCCF3869577956795B395D9F73EF40D
S1130BC090958095709561957F4F8F4F9F4F0895B5
S1130BD0E89409C097FB3EF49095809570956195D3
S1130BE07F4F8F4F9F4F9923A9F0F92F96E9BB2789
S1130BF09395F695879577956795B795F111F8CF05
S1130C00FAF4BB0F11F460FF1BC06F5F7F4F8F4F6F
S1130C109F4F16C0882311F096E911C0772321F065
S1130C209EE8872F762F05C0662371F096E8862FFD
S1130C3070E060E02AF09A95660F771F881FDAF754
S1130C40880F9695879597F9089597F99F6780E897
S1130C5070E060E008959FEF80EC089500240A940A
S1130C601616170618060906089500240A94121683
S1130C701306140605060895092E0394000C11F4B6
S1130C80882352F0BB0F40F4BF2B11F460FF04C063
S1130C906F5F7F4F8F4F9F4F089557FD9058440FBC
S1130CA0551F59F05F3F71F04795880F97FB991FC7
S1130CB061F09F3F79F08795089512161306140684
S1130CC0551FF2CF4695F1DF08C016161706180611
S1130CD0991FF1CF86957105610508940895E894EC
S1130CE0BB2766277727CB0197F90895A29FB00108
S1130CF0B39FC001A39F700D811D1124911DB29F4C
S1130D00700D811D1124911D0895AEE0B0E0EBE853
S1130D10F6E00C9446090D891E8986E08C831A83BB
S1130D2009838FEF9FE79E838D83AE01475E5F4FFC
S1130D306F89788DCE0101960E94A706EF81F88510
S1130D40E00FF11F10822E96E4E00C946209ABE0F0
S1130D50B0E0EDEAF6E00C9438096C017B018A01FD
S1130D60FC0117821682838181FFCCC1CE010196DA
S1130D703C01F6019381F70193FD859193FF8191E5
S1130D807F01882309F4BAC1853239F493FD859132
S1130D9093FF81917F01853229F4B60190E00E948E
S1130DA09E08E7CF912C212C312CFFE1F315D8F0CC
S1130DB08B3279F038F4803279F08332A1F4232D28
S1130DC020611DC08D3261F0803369F4232D2160D0
S1130DD016C0832D8260382EE32DE4603E2E2AC097
S1130DE0F32DF8601DC037FC2DC020ED280F2A30EC
S1130DF040F08E32B9F436FC81C1232D2064322EAA
S1130E0019C036FE06C08AE0989E200D1124922E49
S1130E1011C0EAE02E9E200D1124222EF32DF06243
S1130E203F2E08C08C3621F4832D8068382E02C0F2
S1130E30883641F4F70193FD859193FF81917F01F9
S1130E408111B3CF982F9F7D9554933028F40C5F74
S1130E501F4F9FE399830DC0833631F0833771F0C0
S1130E60833509F059C021C0F801808189830E5F60
S1130E701F4F88248394912C530113C02801F2E05E
S1130E804F0E511CF801A080B18036FE03C0692DBD
S1130E9070E002C06FEF7FEFC5010E9493084C0120
S1130EA08201F32DFF773F2E16C0280122E0420E67
S1130EB0511CF801A080B18036FE03C0692D70E09A
S1130EC002C06FEF7FEFC5010E9488084C01F32D2B
S1130ED0F0683F2E820133FC1BC0822D90E08816FF
S1130EE09906B0F4B60180E290E00E949E082A942C
S1130EF0F4CFF50137FC859137FE81915F01B6018E
S1130F0090E00E949E0821102A9421E0821A910800
S1130F108114910471F7E8C0843611F0893641F5E3
S1130F20F80137FE07C060817181828193810C5F73
S1130F301F4F08C060817181072E000C880B990B2C
S1130F400E5F1F4FF32DFF763F2E97FF09C090953C
S1130F508095709561957F4F8F4F9F4FF0683F2E1E
S1130F602AE030E0A3010E94DA08882E861845C0E2
S1130F70853731F4232D2F7EB22E2AE030E025C0B0
S1130F80932D997FB92E8F36C1F018F4883579F0F6
S1130F90B5C0803719F0883721F0B0C0E92FE0617F
S1130FA0BE2EB4FE0DC0FB2DF460BF2E09C034FE6E
S1130FB00AC0292F2660B22E06C028E030E005C002
S1130FC020E130E002C020E132E0F801B7FE07C0C2
S1130FD060817181828193810C5F1F4F06C06081A3
S1130FE0718180E090E00E5F1F4FA3010E94DA0838
S1130FF0882E8618FB2DFF773F2E36FE0DC0232D3D
S11310002E7FA22E891458F434FE0BC032FC09C082
S1131010832D8E7EA82E05C0B82CA32C03C0B82C1B
S113102001C0B92CA4FE0FC0FE01E80DF11D8081A2
S1131030803321F49A2D997EA92E09C0A2FE06C000
S1131040B394B39404C08A2D867809F0B394A3FCB6
S113105011C0A0FE06C0B21488F4280C922C9B1870
S11310600EC0B21460F4B60180E290E00E949E08C3
S1131070B394F7CFB21418F42B1802C0982C212C77
S1131080A4FE10C0B60180E390E00E949E08A2FE78
S113109017C0A1FC03C088E790E002C088E590E097
S11310A0B6010CC08A2D867859F0A1FE02C08BE2ED
S11310B001C080E2A7FC8DE2B60190E00E949E0888
S11310C0891438F4B60180E390E00E949E089A9453
S11310D0F7CF8A94F301E80DF11D8081B60190E009
S11310E00E949E088110F5CF222009F442CEB60159
S11310F080E290E00E949E082A94F6CFF601868151
S1131100978102C08FEF9FEF2B96E2E10C94540974
S1131110FC010590615070400110D8F780959095BE
S11311208E0F9F1F0895FC016150704001900110C3
S1131130D8F7809590958E0F9F1F08950F931F9356
S1131140CF93DF93FB01238121FD03C08FEF9FEF3A
S11311502CC022FF16C04681578124813581421755
S1131160530744F4A081B1819D012F5F3F4F318328
S113117020838C93268137812F5F3F4F37832683CB
S113118014C08B01EC01FB010084F185E02D09956D
S1131190892BE1F6D80116968D919C9117970196AB
S11311A017969C938E931697CE01DF91CF911F9142
S11311B00F910895FA01AA27283051F1203181F1C5
S11311C0E8946F936E7F6E5F7F4F8F4F9F4FAF4F4B
S11311D0B1E03ED0B4E03CD0670F781F891F9A1F5E
S11311E0A11D680F791F8A1F911DA11D6A0F711D12
S11311F0811D911DA11D20D009F468943F912AE01E
S1131200269F11243019305D3193DEF6CF01089505
S1131210462F4770405D4193B3E00FD0C9F7F6CF36
S1131220462F4F70405D4A3318F0495D31FD4052FE
S1131230419302D0A9F7EACFB4E0A6959795879594
S113124077956795BA95C9F7009761057105089573
S11312509B01AC010A2E069457954795379527951F
S1131260BA95C9F7620F731F841F951FA01D0895B7
S11312702F923F924F925F926F927F928F929F92A2
S1131280AF92BF92CF92DF92EF92FF920F931F9390
S1131290CF93DF93CDB7DEB7CA1BDB0B0FB6F89441
S11312A0DEBF0FBECDBF09942A88398848885F8481
S11312B06E847D848C849B84AA84B984C884DF80F2
S11312C0EE80FD800C811B81AA81B981CE0FD11DD6
S11312D00FB6F894DEBF0FBECDBFED010895F894AC
S10512E0FFCF3A
S11312E20100483A25642C2564202000543A2564E0
S11312F22C25642020004C3A25642C2564202000EF
S113130230303030303030303030303030303030D7
S1131312300047483A20696E69740D0A0048756DB9
S113132269646974793A2025642C25640D0A005491
S1131332656D70657261747572653A2025642C2539
S1131342640D0A004C756D696E657363656E636541
S10D13523A2025642C25640D0A00DE
S9030000FC
