S0180000477265656E686F75736553797374656D2E7372656372
S11300000C94B1000C94CE000C94CE000C94CE0051
S11300100C94CE000C94CE000C94CE000C94CE0024
S11300200C94CE000C94CE000C94CE000C94CE0014
S11300300C94CE000C9455030C94CE000C94CE007A
S11300400C94A1030C94CE000C9438020C94660218
S11300500C94CE000C94D5030C94CE000C94CE00DA
S11300600C94CE000C94CE0000407A10F35A00A0F9
S1130070724E18090010A5D4E80000E8764817006D
S113008000E40B54020000CA9A3B000000E1F505AD
S1130090000080969800000040420F000000A086F7
S11300A001000000102700000000E8030000000029
S11300B06400000000000A000000000001000000CD
S11300C000002C76D888DC674F0823DFC1DFAE59E7
S11300D0E1B1B796E5E3E453C63AE651997696E87A
S11300E0E6C28426EB898C9B62ED407C6FFCEFBCFE
S11300F09C9F40F2BAA56FA5F490055A2AF75C9329
S11301006B6CF9676DC11BFCE0E40D47FEF520E65E
S1130110B500D0ED902E0300943577050080841E41
S1130120080000204E0A000000C80C333333330F9C
S1130130986E12831141EF8D2114893BE65516CF39
S1130140FEE6DB18D1844B381BF77C1D901DA4BB45
S1130150E424203284725E228100C9F124ECA1E5FA
S11301603D2711241FBECFEFD8E0DEBFCDBF11E085
S1130170A0E0B1E0E0EFF5E102C005900D92A032FD
S1130180B107D9F721E0A0E2B1E001C01D92A13787
S1130190B207E1F70E9422030C94F60A0C940000C3
S11301A0FC01408121E030E002C0220F331F6A9538
S11301B0E2F7242B20830895FC01908121E030E0B4
S11301C002C0220F331F6A95E2F72095292320836A
S11301D00895FC01408121E030E002C0220F331F6A
S11301E06A95E2F7242B2083089585B1826085B94E
S11301F085E08A95F1F7000085B18D7F85B9089572
S1130200CF93C82F662321F085B1816085B903C0DF
S113021085B18E7F85B98AB180618AB98AB18062DD
S11302208AB98AB180648AB98AB180688AB98BB183
S11302308F778BB98BB18F7B8BB98BB18F7D8BB95A
S11302408BB18F7E8BB9CC231CF48BB180688BB9B6
S1130250C6FF03C08BB180648BB9C5FF03C08BB1EB
S113026080628BB9C4FF03C08BB180618BB90E94DB
S1130270F5008BB18F778BB98BB18F7B8BB98BB139
S11302808F7D8BB98BB18F7E8BB9C3FF03C08BB1CC
S113029080688BB9C2FF03C08BB180648BB9C1FF86
S11302A003C08BB180628BB9C0FF03C08BB1806186
S11302B08BB90E94F5008BB180618BB98BB18062E0
S11302C08BB98BB180648BB98BB180688BB987EBA8
S11302D09BE00197F1F700C00000CF91089560E022
S11302E00E9400010895611104C080580E946F01AA
S11302F0089580540E946F01089581E00E946F0167
S1130300089561E00E9400010895CF93DF93FC01FA
S113031003C00E948101FE01EF01219680818111B9
S1130320F8CFDF91CF910895CF93C82F84B1816026
S113033084B98AB180628AB984B1826084B98AB18D
S113034080618AB98AB180628AB98AB180648AB9C3
S11303508AB180688AB98FEF99EF0197F1F700C0ED
S113036000008BB180628BB98BB180618BB90E9424
S1130370F5008FE19EE40197F1F700C000000E94B0
S1130380F5008FEF90E00197F1F700C000000E94A4
S1130390F5008FEF90E00197F1F700C000008BB1FA
S11303A08F7E8BB90E94F5008FEF90E00197F1F7F3
S11303B000C0000088E20E946F0188E00E946F0183
S11303C00E947D0186E00E946F018C2F0E946F01C4
S11303D0CF91089587B18F7C87B988B1806388B93C
S11303E0E9EBF0E080818C7F808388E98093B8001A
S11303F0089594EA9093BC009091BC009923E4F78B
S11304008093BB0084E88093BC008091BC00882367
S1130410E4F78091B900887F883121F0803421F499
S113042080E0089580E0089581E008958093BB0002
S113043084E88093BC008091BC008823E4F708958D
S113044084EC8093BC008091BC008823E4F7809105
S1130450BB00089584E88093BC008091BC0088238D
S1130460E4F78091BB00089584E98093BC0008956B
S11304701F920F920FB60F9211242F938F939F9375
S1130480EF93FF938091C0002091C6008C71E0919E
S11304902201EF5FEF7190912101E91739F0E093A8
S11304A02201F0E0EB5DFE4F208301C082E09091D9
S11304B02001892B80932001FF91EF919F918F91CF
S11304C02F910F900FBE0F901F9018951F920F92AF
S11304D00FB60F9211248F939F93EF93FF939091F4
S11304E0240180912301981769F0E0912301EF5FC3
S11304F0EF71E0932301F0E0EB5BFE4F808180938A
S1130500C60005C0E1ECF0E080818F7D8083FF911F
S1130510EF919F918F910F900FBE0F901F901895A0
S113052010922401109223011092220110922101B1
S1130530282F392F33231CF422E02093C000907815
S11305409093C5008093C40088E98093C10086E03D
S11305508093C2000895209124012F5F2F71909100
S113056023012917E1F3E22FF0E0EB5BFE4F8083D8
S113057020932401E1ECF0E080818062808308957F
S1130580CF93DF93EC0103C021960E94AB028881D4
S11305908111FACFDF91CF91089585B58D7F85BD07
S11305A085B5856085BDEEE6F0E08081816080835D
S11305B0E1E8F0E080818B7F8083808183608083A9
S11305C0EFE6F0E0808181608083089564E084E256
S11305D090E00E94D00062E087E290E00E94D000A8
S11305E063E087E290E00E94D00064E085E290E05E
S11305F00E94E90062E088E290E00E94E90063E082
S113060088E290E00E94E90008950E94CD020E94D1
S1130610EA010E94AC0587E690E00E94900281E026
S113062091E00E94C0020E94E6026AE770E08CE753
S113063090E00E941E0462E084E290E00E941D06A5
S1130640789408950E9405032FEF3FEFEE24EA9477
S1130650FE2C8091660181111092660180916701E0
S1130660882359F080916A0190916B01E816F9068C
S113067009F4C701109267017C0180916501882308
S113068041F3C0916801D09169012C173D0751F0E5
S113069005E210E022E045E250E064E0CE010E9471
S11306A0C6059E0110926501D4CF1F920F920FB61A
S11306B00F9211242F933F934F935F936F937F93E4
S11306C08F939F93AF93BF93EF93FF93EAE7F0E089
S11306D0808180648083809100018430E1F485E628
S11306E091E00E94B90490E020916501222321F059
S11306F0909369018093680187E691E00E94330436
S113070090E020916701222321F090936B01809364
S11307106A0110920001809100018F5F80930001B3
S1130720FF91EF91BF91AF919F918F917F916F91C5
S11307305F914F913F912F910F900FBE0F901F909B
S113074018951F920F920FB60F9211242F933F9377
S11307504F935F936F937F938F939F93AF93BF93C5
S1130760EF93FF93209168013091690140916A01F0
S113077050916B0160916C0170916D0180916E01DB
S113078090916F010E94F004FF91EF91BF91AF919E
S11307909F918F917F916F915F914F913F912F9195
S11307A00F900FBE0F901F9018951F920F920FB6C7
S11307B00F9211242F933F934F935F936F937F93E3
S11307C08F939F93AF93BF93EF93FF9360917800C0
S11307D07091790080E090E00E942E0720E030ECD8
S11307E04FE754E40E948D0620E030E048EC52E4E8
S11307F00E94BC079B01AC0160E070E088EC92E4CD
S11308000E94200660936C0170936D0180936E01C9
S113081090936F0181E080936601FF91EF91BF9106
S1130820AF919F918F917F916F915F914F913F9184
S11308302F910F900FBE0F901F901895DC01FB01B4
S11308408C9180648C938C918F778C938C91807F26
S11308508C9380818068808380818860808380819C
S1130860876080830895DF92EF92FF920F931F9326
S1130870CF93DF938C01FC01108288EB0E94F90175
S1130880813021F40E94340280E031C080E00E9473
S1130890160289EB0E94F9010E942002D82E0E94C0
S11308A02002C82F0E942002D82F0E942002F82E76
S11308B00E942A02E82E0E9434028E2D90E02C2FF2
S11308C030E02D0D311D2D0F311D2F0D311D8217DF
S11308D0930721F481E0F801808302C0F8011082BB
S11308E0DD0F8D2F880F880FD80F8D2F8F0DDF917F
S11308F0CF911F910F91FF90EF90DF90089580FFAB
S11309001DC096958795BC01660F771F880F991FA8
S1130910880F991F880F991F680F791F6B5F7F4F8E
S113092080E090E00E942E072AE939E949E95FE373
S11309300E948D060E94FF06CB0108959695879527
S1130940BC01660F771F880F991F880F991F880FA6
S1130950991F680F791F80E090E00E942E072AE912
S113096039E949E95FE30E948D060E94FF06CB0145
S113097008950F931F93CF93DF93EC011882809116
S11309807001882319F0813071F022C086E40E943E
S1130990F90181E10E9416020E94340281E08093F1
S11309A070018FEF18C087E40E94F9010E942002B1
S11309B000E010E00E942A02080F111D0E94340278
S11309C081E0888310927001C8010E947F0403C0F3
S11309D0109270018FEFDF91CF911F910F910895C5
S11309E08F929F92AF92BF92CF92DF92EF92FF923B
S11309F00F931F93CF93DF93CDB7DEB760970FB6F6
S1130A00F894DEBF0FBECDBF4B015C016A017901D2
S1130A1080E1EFE0F1E0DE01119601900D928A95FC
S1130A20E1F760E080E00E94730186E091E00E94BB
S1130A3085018E010F5F1F4F22E043E0C501B40121
S1130A400E943808C8010E94850160E089E00E9484
S1130A50730189E091E00E9485019601ADECBCEC44
S1130A600E9429088C0116950795169507951695E9
S1130A7007954AE0BE016F5F7F4FC8010E94580886
S1130A80CE0101960E9485018EE20E948101C80177
S1130A90880F991F000F111F000F111F000F111F46
S1130AA0080F191F4AE0BE016F5F7F4FC601801B0C
S1130AB0910B0E945808CE0101960E94850161E0C5
S1130AC080E00E9473018CE091E00E94850197010F
S1130AD0ADECBCEC0E9429088C011695079516957F
S1130AE00795169507954AE0BE016F5F7F4FC801D1
S1130AF00E945808CE0101960E9485018EE20E9450
S1130B008101C801880F991F000F111F000F111FC9
S1130B10000F111F080F191F4AE0BE016F5F7F4FBE
S1130B20C701801B910B0E945808CE0101960E94B8
S1130B30850160960FB6F894DEBF0FBECDBFDF917E
S1130B40CF911F910F91FF90EF90DF90CF90BF90C6
S1130B50AF909F908F9008958CE00E94940180E460
S1130B600E946F0180E80E946F0121E030E041E0C3
S1130B7050E060E070E080E89FE30E94F004089594
S1130B800E94E90008950E94DC000895FF920F93EB
S1130B901F93CF93DF93F62EEA014F97C19748F046
S1130BA0622FC8010E94E7056F2DCE010E94C00587
S1130BB008C0622FC8010E9401066F2DCE010E9459
S1130BC0C305DF91CF911F910F91FF900895CF93AB
S1130BD0C62F85E290E00E94E90089EE8A95F1F73C
S1130BE000006C2F85E290E00E94DC0094E69A9568
S1130BF0F1F78DE892E10197F1F700C00000CF9181
S1130C000895CF93C62F85E290E00E94E90087E51E
S1130C1092E00197F1F700C000006C2F85E290E0AC
S1130C200E94DC0098EC9A95F1F789E990E101972C
S1130C30F1F700C00000CF9108950E94D0000895FC
S1130C405058BB27AA270E9438060C9482070E949A
S1130C50740738F00E947B0720F039F49F3F19F4A1
S1130C6026F40C9471070EF4E095E7FB0C946B07E3
S1130C70E92F0E94930758F3BA1762077307840792
S1130C80950720F079F4A6F50C94B5070EF4E095D9
S1130C900B2EBA2FA02D0B01B90190010C01CA0132
S1130CA0A0011124FF27591B99F0593F50F4503EDD
S1130CB068F11A16F040A22F232F342F4427585FCF
S1130CC0F3CF469537952795A795F0405395C9F7E7
S1130CD07EF41F16BA0B620B730B840BBAF091509F
S1130CE0A1F0FF0FBB1F661F771F881FC2F70EC03E
S1130CF0BA0F621F731F841F48F487957795679511
S1130D00B795F7959E3F08F0B0CF9395880F08F0FC
S1130D109927EE0F9795879508950E94A1060C9444
S1130D2082070E947B0758F00E94740740F029F460
S1130D305F3F29F00C946B0751110C94B6070C9487
S1130D4071070E94930768F39923B1F3552391F334
S1130D50951B550BBB27AA2762177307840738F026
S1130D609F5F5F4F220F331F441FAA1FA9F335D083
S1130D700E2E3AF0E0E832D091505040E695001C37
S1130D80CAF72BD0FE2F29D0660F771F881FBB1FF1
S1130D90261737074807AB07B0E809F0BB0B802DCF
S1130DA0BF01FF2793585F4F3AF09E3F510578F0FB
S1130DB00C946B070C94B6075F3FE4F3983ED4F3AE
S1130DC0869577956795B795F7959F5FC9F7880FCF
S1130DD0911D9695879597F90895E1E0660F771F21
S1130DE0881FBB1F621773078407BA0720F0621BB2
S1130DF0730B840BBA0BEE1F88F7E09508950E94DD
S1130E009B0788F09F5798F0B92F9927B751B0F0F6
S1130E10E1F0660F771F881F991F1AF0BA95C9F77A
S1130E2014C0B13091F00E94B507B1E008950C945C
S1130E30B507672F782F8827B85F39F0B93FCCF30F
S1130E40869577956795B395D9F73EF490958095F7
S1130E50709561957F4F8F4F9F4F0895E89409C017
S1130E6097FB3EF490958095709561957F4F8F4FD9
S1130E709F4F9923A9F0F92F96E9BB279395F695EF
S1130E80879577956795B795F111F8CFFAF4BB0F6D
S1130E9011F460FF1BC06F5F7F4F8F4F9F4F16C0D1
S1130EA0882311F096E911C0772321F09EE8872F5B
S1130EB0762F05C0662371F096E8862F70E060E017
S1130EC02AF09A95660F771F881FDAF7880F969590
S1130ED0879597F9089597F99F6780E870E060E037
S1130EE008959FEF80EC089500240A9416161706BF
S1130EF018060906089500240A9412161306140607
S1130F0005060895092E0394000C11F4882352F069
S1130F10BB0F40F4BF2B11F460FF04C06F5F7F4F21
S1130F208F4F9F4F089557FD9058440F551F59F008
S1130F305F3F71F04795880F97FB991F61F09F3FC2
S1130F4079F087950895121613061406551FF2CFEB
S1130F504695F1DF08C0161617061806991FF1CF3B
S1130F6086957105610508940895E894BB27662762
S1130F707727CB0197F908950E94CF070C94820735
S1130F800E94740738F00E947B0720F0952311F02B
S1130F900C946B070C94710711240C94B6070E94EF
S1130FA0930770F3959FC1F3950F50E0551F629F0F
S1130FB0F001729FBB27F00DB11D639FAA27F00DAE
S1130FC0B11DAA1F649F6627B00DA11D661F829FD5
S1130FD02227B00DA11D621F739FB00DA11D621FBA
S1130FE0839FA00D611D221F749F3327A00D611DD7
S1130FF0231F849F600D211D822F762F6A2F1124B9
S11310009F5750409AF0F1F088234AF0EE0FFF1FEB
S1131010BB1F661F771F881F91505040A9F79E3F42
S1131020510580F00C946B070C94B6075F3FE4F312
S1131030983ED4F3869577956795B795F795E79598
S11310409F5FC1F7FE2B880F911D9695879597F9A1
S11310500895A29FB001B39FC001A39F700D811D8D
S11310601124911DB29F700D811D1124911D0895AD
S1131070EF920F931F93CF93DF93E80147FD02C0D4
S113108034E001C034E1042E000C550B57FF03C0BB
S1131090519541955109E32E022F242FAE010E9450
S11310A07D08CE01DF91CF911F910F91EF900895AC
S11310B0BB274A3031F4992322F4BDE290958195FF
S11310C09F4F0C946408BB27FB015527AA27880F60
S11310D0991FAA1FA41710F0A41B83955051B9F7A8
S11310E0A05DAA3308F0A95DA193009779F7B11127
S11310F0B1931192CB010C94AF0AA9E0B0E0E3E8FC
S1131100F8E00C94C50A6A01122FB02E2BE32017C5
S113111020F0FF24F394F00E02C02CE3F22E0F2DE6
S113112027E0AE014F5F5F4F0E94D709BC014981A0
S1131130842F8970813031F0E1FC06C0E0FE06C0E6
S113114090E205C09DE203C09BE201C090E05E2DE9
S1131150507143FF3CC0911102C083E001C084E0A0
S1131160811718F4212F281B01C020E051110BC056
S1131170F601822F30E2882319F031938150FBCF9E
S1131180C20ED11C20E0992329F0D6019C93F601CC
S113119031966F01C6010396E2FE0AC03EE4D60111
S11311A03C9341E411964C93119712963C9306C0DC
S11311B03EE6F601308341E641833283FC01322F5F
S11311C040E2332309F442C041933150FACF42FF45
S11311D044C0911102C083E001C084E0811718F477
S11311E0212F281B01C020E051110BC0F601822FD2
S11311F030E2882319F031938150FBCFC20ED11C09
S113120020E0992329F0D6019C93F60131966F01D1
S1131210C6010396E2FE0BC039E4D6013C933EE4DA
S113122011963C93119736E412963C9307C039E625
S1131230F60130833EE6318336E63283FC01322FF9
S113124040E2332319F041933150FBCFFC01E20F0C
S1131250F11D10828EEF9FEFA6C021E030E09111C6
S113126002C020E030E0161617061CF4FB0131968C
S113127002C0E1E0F0E02E0F3F1FBB2021F0EB2D78
S1131280F0E0319602C0E0E0F0E02E0F3F1FE12FC6
S1131290F0E02E173F071CF4121B212F01C020E0A1
S11312A08E2D887159F4F601822F30E2882319F0CB
S11312B031938150FBCFC20ED11C20E0992329F039
S11312C0D6019C93F60131966F0151110BC0F601C2
S11312D0822F90E3882319F091938150FBCFC20EA3
S11312E0D11C20E00F2D060F9A81342F307144FF5A
S11312F003C0913309F40150101624F4093018F096
S113130008E001C001E0AB0177FF02C040E050E01B
S1131310FB01E41BF50BA1E0B0E0AC0FBD1FEA0F2D
S1131320FB1F8EE2A82E4B01801A91080B2D10E0B2
S11313301195019511094F3FBFEF5B0721F4D601C9
S1131340AC9211966D01641775072CF084169506FE
S113135014F4818101C080E3415051093196D601D2
S113136011967D014017510724F0D6018C93670133
S1131370E2CF6417750739F4963320F4953319F4E2
S1131380311101C081E3F6018083F701822F90E2DD
S1131390882319F091938150FBCFF701E20FF11DDF
S11313A0108280E090E02996ECE00C94E10A283069
S11313B008F027E03327DA01990F311D87FD91608A
S11313C000966105710539F432602E5F3D9330E378
S11313D02A95E1F708959F3F30F080387105610543
S11313E009F03C5F3C5F3D93913008F08068911DAB
S11313F0DF93CF931F930F93FF92EF92192F987F50
S11314009695E92F96959695E90FFF27EE53FF4F92
S113141099273327EE24FF24A701E70105900894B8
S1131420079428F4360FE71EF81E491F511D660F56
S1131430771F881F991F0694A1F70590079428F435
S1131440E70EF81E491F561FC11D770F881F991FED
S1131450661F0694A1F70590079428F4F80E491F17
S1131460561FC71FD11D880F991F661F771F06942B
S1131470A1F70590079420F4490F561FC71FD81FE2
S1131480990F661F771F881F0694A9F784911095FA
S1131490177041F0D695C79557954795F794E794FB
S11314A01A95C1F7E8E6F0E0689415901591359126
S11314B06591959105907FE27395E118F10A430BCC
S11314C0560BC90BD009C0F7E10CF11E431F561F80
S11314D0C91FD01D7EF4703311F48A95E6CFE894C9
S11314E0015030F0080F0AF40027021708F4202FE7
S11314F02395022F7A3328F079E37D932A95E9F72F
S113150010C07D932A9589F606949795679537952B
S113151017951794E118F10A430B560BC90BD00920
S113152098F023957E9173957A3308F070E37C9359
S11315302013B8F77E9170617D9330F0839571E349
S11315407D9370E32A95E1F71124EF90FF900F91BA
S11315501F91CF91DF91992787FD90950895DC0124
S1131560FC01672F71917723E1F7329704C07C91D6
S11315706D9370836291AE17BF07C8F308952F92DD
S11315803F924F925F926F927F928F929F92AF920F
S1131590BF92CF92DF92EF92FF920F931F93CF935C
S11315A0DF93CDB7DEB7CA1BDB0B0FB6F894DEBFF3
S11315B00FBECDBF09942A88398848885F846E8419
S11315C07D848C849B84AA84B984C884DF80EE8063
S11315D0FD800C811B81AA81B981CE0FD11D0FB66C
S11315E0F894DEBF0FBECDBFED010895F894FFCF90
S11315F0017465737400533A00543A004C3A003055
S11316003030303030303030303030303030000036
S9030000FC
