S0180000477265656E686F75736553797374656D2E7372656372
S11300000C94B1000C94CE000C94CE000C94CE0051
S11300100C94CE000C94CE000C94CE000C94CE0024
S11300200C94CE000C94CE000C94CE000C94CE0014
S11300300C94CE000C94A1030C94CE000C94CE002E
S11300400C94ED030C94CE000C944D020C947B02A2
S11300500C94CE000C9421040C94CE000C94CE008D
S11300600C94CE000C94CE0000407A10F35A00A0F9
S1130070724E18090010A5D4E80000E8764817006D
S113008000E40B54020000CA9A3B000000E1F505AD
S1130090000080969800000040420F000000A086F7
S11300A001000000102700000000E8030000000029
S11300B06400000000000A000000000001000000CD
S11300C000002C76D888DC674F0823DFC1DFAE59E7
S11300D0E1B1B796E5E3E453C63AE651997696E87A
S11300E0E6C28426EB898C9B62ED407C6FFCEFBCFE
S11300F09C9F40F2BAA56FA5F490055A2AF75C9329
S11301006B6CF9676DC11BFCE0E40D47FEF520E65E
S1130110B500D0ED902E0300943577050080841E41
S1130120080000204E0A000000C80C333333330F9C
S1130130986E12831141EF8D2114893BE65516CF39
S1130140FEE6DB18D1844B381BF77C1D901DA4BB45
S1130150E424203284725E228100C9F124ECA1E5FA
S11301603D2711241FBECFEFD8E0DEBFCDBF11E085
S1130170A0E0B1E0E8E5F6E102C005900D92AA32F4
S1130180B107D9F721E0AAE2B1E001C01D92AA3774
S1130190B207E1F70E9439030C942A0B0C94000077
S11301A0FC01408121E030E002C0220F331F6A9538
S11301B0E2F7242B20830895FC01908121E030E0B4
S11301C002C0220F331F6A95E2F72095292320836A
S11301D00895FC01408121E030E002C0220F331F6A
S11301E06A95E2F7242B20830895FC01408181E085
S11301F090E09C01062E02C0220F331F0A94E2F7FE
S1130200842F90E08223932302C0959587956A9565
S1130210E2F7089585B1826085B985E08A95F1F7A2
S1130220000085B18D7F85B90895CF93C82F6623CB
S113023021F085B1816085B903C085B18E7F85B910
S11302408AB180618AB98AB180628AB98AB18064CC
S11302508AB98AB180688AB98BB18F778BB98BB12F
S11302608F7B8BB98BB18F7D8BB98BB18F7E8BB923
S1130270CC231CF48BB180688BB9C6FF03C08BB14F
S113028080648BB9C5FF03C08BB180628BB9C4FF96
S113029003C08BB180618BB90E940A018BB18F7747
S11302A08BB98BB18F7B8BB98BB18F7D8BB98BB1B4
S11302B08F7E8BB9C3FF03C08BB180688BB9C2FF3B
S11302C003C08BB180648BB9C1FF03C08BB1806262
S11302D08BB9C0FF03C08BB180618BB90E940A0146
S11302E08BB180618BB98BB180628BB98BB1806427
S11302F08BB98BB180688BB987EB9BE00197F1F7E1
S113030000C00000CF91089560E00E941501089597
S1130310611104C080580E948401089580540E9491
S11303208401089581E00E948401089561E00E949F
S113033015010895CF93DF93FC0103C00E94960139
S1130340FE01EF01219680818111F8CFDF91CF91D9
S11303500895CF93C82F84B1816084B98AB1806233
S11303608AB984B1826084B98AB180618AB98AB158
S113037080628AB98AB180648AB98AB180688AB98C
S11303808FEF99EF0197F1F700C000008BB1806205
S11303908BB98BB180618BB90E940A018FE19EE415
S11303A00197F1F700C000000E940A018FEF90E06E
S11303B00197F1F700C000000E940A018FEF90E05E
S11303C00197F1F700C000008BB18F7E8BB90E94BA
S11303D00A018FEF90E00197F1F700C0000088E276
S11303E00E94840188E00E9484010E94920186E0B8
S11303F00E9484018C2F0E948401CF91089587B1BB
S11304008F7C87B988B1806388B9E9EBF0E080819B
S11304108C7F808388E98093B800089594EA909350
S1130420BC009091BC009923E4F78093BB0084E85E
S11304308093BC008091BC008823E4F78091B900CC
S1130440887F883121F0803421F480E0089580E0B1
S1130450089581E008958093BB0084E88093BC00F4
S11304608091BC008823E4F7089584EC8093BC0059
S11304708091BC008823E4F78091BB00089584E850
S11304808093BC008091BC008823E4F78091BB007A
S1130490089584E98093BC0008951F920F920FB6CB
S11304A00F9211242F938F939F93EF93FF93809137
S11304B0C0002091C6008C71E0912C01EF5FEF71B8
S11304C090912B01E91739F0E0932C01F0E0E15D04
S11304D0FE4F208301C082E090912A01892B8093F2
S11304E02A01FF91EF919F918F912F910F900FBE51
S11304F00F901F9018951F920F920FB60F92112410
S11305008F939F93EF93FF9390912E0180912D01F0
S1130510981769F0E0912D01EF5FEF71E0932D01E1
S1130520F0E0E15BFE4F80818093C60005C0E1EC02
S1130530F0E080818F7D8083FF91EF919F918F9177
S11305400F900FBE0F901F90189510922E011092CD
S11305502D0110922C0110922B01282F392F3323B7
S11305601CF422E02093C00090789093C5008093FF
S1130570C40088E98093C10086E08093C200089596
S113058020912E012F5F2F7190912D012917E1F3F6
S1130590E22FF0E0E15BFE4F808320932E01E1EC3B
S11305A0F0E08081806280830895CF93DF93EC0133
S11305B003C021960E94C00288818111FACFDF9185
S11305C0CF91089585B58D7F85BD85B5856085BD41
S11305D0EEE6F0E0808181608083E1E8F0E08081F4
S11305E08B7F8083808183608083EFE6F0E080816D
S11305F081608083089565E084E290E00E94D000E9
S113060063E084E290E00E94D00064E084E290E041
S11306100E94D00063E08AE290E00E94D00062E091
S11306208AE290E00E94D00008950E94E2020E94B3
S1130630FF010E94D4040E949A0587E690E00E947C
S1130640A5028CE191E00E94D5020E94FB026AE7B8
S113065070E08CE790E00E946C0462E084E290E039
S11306600E94520662E085E290E00E943806789487
S113067008950E941503CFEFDFEFCC24CA94DC2C3D
S1130680F12CE12C812C712C80917001882349F18B
S113069090907601A0907701B09078011091790143
S11306A0292D3A2D4B2D512F6F2D7E2D882D972DD1
S11306B00E94C206882399F00F2EFBE2EF2EF12C44
S11306C0F02D03E02BE230E042E0692D7A2D8B2DF2
S11306D0912F0E94FB05F92CEA2C8B2C712E109281
S11306E0700180917101882399F0A0907401B090F9
S11306F07501CA14DB0451F005E210E023E045E281
S113070050E064E0C5010E94DD05650110927101AD
S113071080916F01882309F4B7CFA0907201B09043
S11307207301CA15DB0551F005E210E022E045E251
S113073050E065E0C5010E94D005E50110926F010B
S1130740A3CF1F920F920FB60F9211242F933F93B2
S11307504F935F936F937F938F939F93AF93BF93C5
S1130760EF93FF9380910001823009F58FE691E0C9
S11307700E94DD049C0190916F01992321F0309334
S113078073012093720181E791E00E94810490E05B
S113079020917101222321F09093750180937401BB
S11307A010920001EAE7F0E0808180648083809108
S11307B000018F5F80930001FF91EF91BF91AF9192
S11307C09F918F917F916F915F914F913F912F9165
S11307D00F900FBE0F901F9018951F920F920FB697
S11307E00F9211242F933F934F935F936F937F93B3
S11307F08F939F93AF93BF93EF93FF9320917201D5
S113080030917301409174015091750160917601AA
S11308107091770180917801909179010E94FA0496
S1130820FF91EF91BF91AF919F918F917F916F91C4
S11308305F914F913F912F910F900FBE0F901F909A
S113084018951F920F920FB60F9211242F933F9376
S11308504F935F936F937F938F939F93AF93BF93C4
S1130860EF93FF93F894609178007091790080E0A1
S113087090E00E94390720E030EC4FE754E40E94F6
S1130880C70620E030E048EC52E40E94F0079B01E8
S1130890AC0160E070E088EC92E40E94550660933D
S11308A0760170937701809378019093790181E0C8
S11308B0809370017894FF91EF91BF91AF919F91D4
S11308C08F917F916F915F914F913F912F910F90F5
S11308D00FBE0F901F901895DC01FB018C91806472
S11308E08C938C918F778C938C91807F8C93808167
S11308F08068808380818860808380818760808332
S11309000895AF92BF92CF92DF92EF92FF920F932E
S11309101F93CF93DF937C01FC01108288EB0E942C
S11309200E02813021F40E94490280E032C080E04E
S11309300E942B0289EB0E940E020E943502A82E0F
S11309400E943502C82FD0E00E943502182FC82E0D
S1130950D12C0E943502082F0E943F02B82E0E941B
S113096049028B2D90E0CA0DD11DCC0DDD1DC00FA9
S1130970D11D8C179D0721F481E0F701808302C00B
S1130980F7011082110F812F880F880F180F812F04
S1130990800FDF91CF911F910F91FF90EF90DF9027
S11309A0CF90BF90AF90089586E40E940E0280E13C
S11309B00E942B020E94490208950F931F93CF9324
S11309C0DF938C0187E40E940E020E943502C82F37
S11309D0D0E0DC2FCC270E943F02C80FD11D0E941B
S11309E0490281E0F8018083CE01DF91CF911F910C
S11309F00F9108958F929F92AF92BF92CF92DF9200
S1130A00EF92FF920F931F93CF93DF934B015C01FF
S1130A106A01790160E080E00E94880181E291E04E
S1130A200E949A0103E111E022E043E0C501B40110
S1130A300E946C08C8010E949A0160E089E00E944B
S1130A40880184E291E00E949A019601ADECBCEC2D
S1130A500E945D08EC01D695C795D695C795D695A5
S1130A60C7954AE06AE071E0CE010E948C088AE0F2
S1130A7091E00E949A018EE20E949601CE01880FB5
S1130A80991FCC0FDD1FCC0FDD1FCC0FDD1FC80F4E
S1130A90D91F4AE06AE071E0C6018C1B9D0B0E94DD
S1130AA08C088AE091E00E949A0161E080E00E9453
S1130AB0880187E291E00E949A019701ADECBCECB9
S1130AC00E945D08EC01D695C795D695C795D69535
S1130AD0C7954AE061E071E0CE010E948C0881E094
S1130AE091E00E949A018EE20E949601CE01880F45
S1130AF0991FCC0FDD1FCC0FDD1FCC0FDD1FC80FDE
S1130B00D91F4AE061E071E0C7018C1B9D0B0E9474
S1130B108C0881E091E00E949A01DF91CF911F91AE
S1130B200F91FF90EF90DF90CF90BF90AF909F9088
S1130B308F9008958CE00E94A90180E40E948401B2
S1130B4080E80E94840121E030E041E050E060E070
S1130B5070E080E89FE30E94FA0408951F93CF9306
S1130B60DF93EC01162F0E94F500811104C0612F60
S1130B70CE010E94E900DF91CF911F9108951F9348
S1130B80CF93DF93EC01162F0E94F500813021F4FE
S1130B90612FCE010E94DC00DF91CF911F91089557
S1130BA085569109833F914020F0CA010E94AE0509
S1130BB00895CA010E94BF0508950F931F93CF9310
S1130BC0C22F8B3F910520F4CA010E94AE050FC0CD
S1130BD08E35914028F06C2FC8010E94AE0507C0E5
S1130BE0CA010E94BF056C2FC8010E94BF05CF91A6
S1130BF01F910F9108958F929F92AF92BF92EF929F
S1130C00FF920F931F93CF93DF934B015C01142F3B
S1130C10E90120E030E040E251E40E94C2061816E7
S1130C202CF0612FCE010E94AE0517C020E030E009
S1130C3048E452E4C501B4010E94EB0788232CF078
S1130C40602FC7010E94AE0508C0612FCE010E942B
S1130C50BF05602FC7010E94BF05DF91CF911F918F
S1130C600F91FF90EF90BF90AF909F908F90089559
S1130C70CF93C62F85E290E00E94E90089EE8A9521
S1130C80F1F700006C2F85E290E00E94DC0094E60E
S1130C909A95F1F78DE892E10197F1F700C0000011
S1130CA0CF9108950E94D00008955058BB27AA27D9
S1130CB00E946D060C94B1070E94A30738F00E94AD
S1130CC0AA0720F039F49F3F19F426F40C94A007E6
S1130CD00EF4E095E7FB0C949A07E92F0E94C207F3
S1130CE058F3BA17620773078407950720F079F45D
S1130CF0A6F50C94E4070EF4E0950B2EBA2FA02D64
S1130D000B01B90190010C01CA01A0011124FF27B4
S1130D10591B99F0593F50F4503E68F11A16F040AF
S1130D20A22F232F342F4427585FF3CF46953795AE
S1130D302795A795F0405395C9F77EF41F16BA0B73
S1130D40620B730B840BBAF09150A1F0FF0FBB1F21
S1130D50661F771F881FC2F70EC0BA0F621F731F6A
S1130D60841F48F4879577956795B795F7959E3FC7
S1130D7008F0B0CF9395880F08F09927EE0F979558
S1130D80879508950E94760708F481E008950E94EB
S1130D90DB060C94B1070E94AA0758F00E94A3072F
S1130DA040F029F45F3F29F00C949A0751110C94F8
S1130DB0E5070C94A0070E94C20768F39923B1F3D6
S1130DC0552391F3951B550BBB27AA27621773076D
S1130DD0840738F09F5F5F4F220F331F441FAA1F01
S1130DE0A9F335D00E2E3AF0E0E832D091505040BD
S1130DF0E695001CCAF72BD0FE2F29D0660F771F6B
S1130E00881FBB1F261737074807AB07B0E809F050
S1130E10BB0B802DBF01FF2793585F4F3AF09E3FD5
S1130E20510578F00C949A070C94E5075F3FE4F3BE
S1130E30983ED4F3869577956795B795F7959F5F18
S1130E40C9F7880F911D9695879597F90895E1E064
S1130E50660F771F881FBB1F621773078407BA07C3
S1130E6020F0621B730B840BBA0BEE1F88F7E0951E
S1130E700895E89409C097FB3EF490958095709589
S1130E8061957F4F8F4F9F4F9923A9F0F92F96E9D2
S1130E90BB279395F695879577956795B795F11147
S1130EA0F8CFFAF4BB0F11F460FF1BC06F5F7F4FE4
S1130EB08F4F9F4F16C0882311F096E911C07723F6
S1130EC021F09EE8872F762F05C0662371F096E8FF
S1130ED0862F70E060E02AF09A95660F771F881FCE
S1130EE0DAF7880F9695879597F90895990F000872
S1130EF0550FAA0BE0E8FEEF16161706E807F907E8
S1130F00C0F012161306E407F50798F0621B730B82
S1130F10840B950B39F40A2661F0232B242B252B03
S1130F2021F408950A2609F4A140A6958FEF811DA6
S1130F30811D089597F99F6780E870E060E0089547
S1130F409FEF80EC089500240A94161617061806DD
S1130F500906089500240A941216130614060506B9
S1130F600895092E0394000C11F4882352F0BB0F4A
S1130F7040F4BF2B11F460FF04C06F5F7F4F8F4FAD
S1130F809F4F089557FD9058440F551F59F05F3FE8
S1130F9071F04795880F97FB991F61F09F3F79F097
S1130FA087950895121613061406551FF2CF469519
S1130FB0F1DF08C0161617061806991FF1CF86959B
S1130FC07105610508940895E894BB27662777277F
S1130FD0CB0197F908950E94760708F48FEF0895DE
S1130FE00E9403080C94B1070E94A30738F00E94E2
S1130FF0AA0720F0952311F00C949A070C94A007EB
S113100011240C94E5070E94C20770F3959FC1F365
S1131010950F50E0551F629FF001729FBB27F00DA2
S1131020B11D639FAA27F00DB11DAA1F649F6627F7
S1131030B00DA11D661F829F2227B00DA11D621F46
S1131040739FB00DA11D621F839FA00D611D221F00
S1131050749F3327A00D611D231F849F600D211DE4
S1131060822F762F6A2F11249F5750409AF0F1F067
S113107088234AF0EE0FFF1FBB1F661F771F881FD0
S113108091505040A9F79E3F510580F00C949A0767
S11310900C94E5075F3FE4F3983ED4F38695779587
S11310A06795B795F795E7959F5FC1F7FE2B880F76
S11310B0911D9695879597F90895A29FB001B39FC6
S11310C0C001A39F700D811D1124911DB29F700D4D
S11310D0811D1124911D0895EF920F931F93CF93B7
S11310E0DF93E80147FD02C034E001C034E1042E7F
S11310F0000C550B57FF03C0519541955109E32E40
S1131100022F242FAE010E94B108CE01DF91CF91AE
S11311101F910F91EF900895BB274A3031F4992322
S113112022F4BDE2909581959F4F0C949808BB27BB
S1131130FB015527AA27880F991FAA1FA41710F08F
S1131140A41B83955051B9F7A05DAA3308F0A95D9B
S1131150A193009779F7B111B1931192CB010C943B
S1131160E30AA9E0B0E0E7EBF8E00C94F90A6A01BD
S1131170122FB02E2BE3201720F0FF24F394F00E4F
S113118002C02CE3F22E0F2D27E0AE014F5F5F4F1C
S11311900E940B0ABC014981842F8970813031F08F
S11311A0E1FC06C0E0FE06C090E205C09DE203C07B
S11311B09BE201C090E05E2D507143FF3CC0911151
S11311C002C083E001C084E0811718F4212F281B9A
S11311D001C020E051110BC0F601822F30E28823B8
S11311E019F031938150FBCFC20ED11C20E099231A
S11311F029F0D6019C93F60131966F01C60103963E
S1131200E2FE0AC03EE4D6013C9341E411964C93BD
S1131210119712963C9306C03EE6F601308341E6F0
S113122041833283FC01322F40E2332309F442C06C
S113123041933150FACF42FF44C0911102C083E080
S113124001C084E0811718F4212F281B01C020E07D
S113125051110BC0F601822F30E2882319F031932B
S11312608150FBCFC20ED11C20E0992329F0D60176
S11312709C93F60131966F01C6010396E2FE0BC002
S113128039E4D6013C933EE411963C93119736E43D
S113129012963C9307C039E6F60130833EE631836B
S11312A036E63283FC01322F40E2332319F04193B6
S11312B03150FBCFFC01E20FF11D10828EEF9FEF46
S11312C0A6C021E030E0911102C020E030E0161603
S11312D017061CF4FB01319602C0E1E0F0E02E0F8A
S11312E03F1FBB2021F0EB2DF0E0319602C0E0E07F
S11312F0F0E02E0F3F1FE12FF0E02E173F071CF404
S1131300121B212F01C020E08E2D887159F4F601A3
S1131310822F30E2882319F031938150FBCFC20E23
S1131320D11C20E0992329F0D6019C93F601319633
S11313306F0151110BC0F601822F90E3882319F03D
S113134091938150FBCFC20ED11C20E00F2D060FCC
S11313509A81342F307144FF03C0913309F4015052
S1131360101624F4093018F008E001C001E0AB01C4
S113137077FF02C040E050E0FB01E41BF50BA1E065
S1131380B0E0AC0FBD1FEA0FFB1F8EE2A82E4B018D
S1131390801A91080B2D10E01195019511094F3F0A
S11313A0BFEF5B0721F4D601AC9211966D0164176F
S11313B075072CF08416950614F4818101C080E32E
S11313C0415051093196D60111967D0140175107BC
S11313D024F0D6018C936701E2CF6417750739F4C2
S11313E0963320F4953319F4311101C081E3F601E9
S11313F08083F701822F90E2882319F09193815022
S1131400FBCFF701E20FF11D108280E090E02996F6
S1131410ECE00C94150B283008F027E03327DA01B0
S1131420990F311D87FD916000966105710539F4AE
S113143032602E5F3D9330E32A95E1F708959F3F94
S113144030F080387105610509F03C5F3C5F3D93E5
S1131450913008F08068911DDF93CF931F930F9311
S1131460FF92EF92192F987F9695E92F969596956E
S1131470E90FFF27EE53FF4F99273327EE24FF246C
S1131480A701E70105900894079428F4360FE71E96
S1131490F81E491F511D660F771F881F991F069458
S11314A0A1F70590079428F4E70EF81E491F561F6C
S11314B0C11D770F881F991F661F0694A1F7059019
S11314C0079428F4F80E491F561FC71FD11D880F13
S11314D0991F661F771F0694A1F70590079420F4BF
S11314E0490F561FC71FD81F990F661F771F881FE4
S11314F00694A9F784911095177041F0D695C79575
S113150057954795F794E7941A95C1F7E8E6F0E004
S113151068941590159135916591959105907FE2A8
S11315207395E118F10A430B560BC90BD009C0F7A8
S1131530E10CF11E431F561FC91FD01D7EF47033EA
S113154011F48A95E6CFE894015030F0080F0AF4BC
S11315500027021708F4202F2395022F7A3328F04E
S113156079E37D932A95E9F710C07D932A9589F64E
S1131570069497956795379517951794E118F10A8E
S1131580430B560BC90BD00998F023957E917395A4
S11315907A3308F070E37C932013B8F77E9170617E
S11315A07D9330F0839571E37D9370E32A95E1F7A1
S11315B01124EF90FF900F911F91CF91DF91992704
S11315C087FD90950895DC01FC01672F71917723C5
S11315D0E1F7329704C07C916D9370836291AE17EA
S11315E0BF07C8F308952F923F924F925F926F9274
S11315F07F928F929F92AF92BF92CF92DF92EF929F
S1131600FF920F931F93CF93DF93CDB7DEB7CA1B1F
S1131610DB0B0FB6F894DEBF0FBECDBF09942A884A
S1131620398848885F846E847D848C849B84AA84F2
S1131630B984C884DF80EE80FD800C811B81AA817F
S1131640B981CE0FD11D0FB6F894DEBF0FBECDBF4A
S10B1650ED010895F894FFCFA9
S113165801303030303030303000303030303030DD
S113166830300030303030303030300074657374CE
S10D167800533A00543A004C3A00C3
S9030000FC
