S0180000477265656E686F75736553797374656D2E7372656372
S11300000C9434000C9451000C9451000C94510045
S11300100C9451000C9451000C9451000C94510018
S11300200C9451000C9451000C9451000C94510008
S11300300C9451000C9416040C9451000C9451002F
S11300400C9454040C9451000C94DF040C940D058E
S11300500C9451000C9478040C9451000C945100AD
S11300600C9451000C94510011241FBECFEFD8E022
S1130070DEBFCDBF11E0A0E0B1E0EEE8FDE002C0DC
S113008005900D92AE31B107D9F721E0AEE1B1E0B0
S113009001C01D92AD36B207E1F70E94F5020C943F
S11300A0C5060C940000FC01408121E030E002C050
S11300B0220F331F6A95E2F7242B20830895FC0155
S11300C0908121E030E002C0220F331F6A95E2F7ED
S11300D02095292320830895FC01408121E030E00C
S11300E002C0220F331F6A95E2F7242B2083089560
S11300F085B1826085B985E08A95F1F7000085B104
S11301008D7F85B90895CF93C82F662321F085B1DB
S1130110816085B903C085B18E7F85B98AB180615C
S11301208AB98AB180628AB98AB180648AB98AB18B
S113013080688AB98BB18F778BB98BB18F7B8BB980
S11301408BB18F7D8BB98BB18F7E8BB9CC231CF493
S11301508BB180688BB9C6FF03C08BB180648BB947
S1130160C5FF03C08BB180628BB9C4FF03C08BB1E0
S113017080618BB90E9478008BB18F778BB98BB17A
S11301808F7B8BB98BB18F7D8BB98BB18F7E8BB904
S1130190C3FF03C08BB180688BB9C2FF03C08BB1AE
S11301A080648BB9C1FF03C08BB180628BB9C0FF7F
S11301B003C08BB180618BB90E9478008BB18061E0
S11301C08BB98BB180628BB98BB180648BB98BB1E5
S11301D080688BB987EB9BE00197F1F700C00000C2
S11301E0CF91089560E00E9483000895611104C0D6
S11301F080580E94F200089580540E94F2000895ED
S113020081E00E94F200089561E00E948300089555
S1130210CF93DF93FC0103C00E940401FE01EF01B0
S1130220219680818111F8CFDF91CF910895CF93EA
S1130230C82F84B1816084B98AB180628AB984B1DB
S1130240826084B98AB180618AB98AB180628AB9CC
S11302508AB180648AB98AB180688AB98FEF99EFCC
S11302600197F1F700C000008BB180628BB98BB1AC
S113027080618BB90E9478008FE19EE40197F1F7C9
S113028000C000000E9478008FEF90E00197F1F722
S113029000C000000E9478008FEF90E00197F1F712
S11302A000C000008BB18F7E8BB90E9478008FEF65
S11302B090E00197F1F700C0000088E20E94F2008C
S11302C088E00E94F2000E94000186E00E94F20091
S11302D08C2F0E94F200CF910895CF93DF93CDB776
S11302E0DEB762970FB6F894DEBF0FBECDBF82E1D2
S11302F0EBE0F1E0DE01119601900D928A95E1F7B1
S113030060E080E00E94F60082E091E00E94080133
S11303102091260130912701ADECBCEC0E948106AE
S11303204AE0BE016F5F7F4F9695879596958795B6
S1130330969587950E949006CE0101960E94080129
S11303408CE20E940401E0912601F09127019F01B3
S1130350ADECBCEC0E9481069695879596958795A1
S1130360969587959C01220F331F880F991F880F3C
S1130370991F880F991F820F931F4AE0BE016F5F78
S11303807F4F9F01281B390BC9010E949006CE01A3
S113039001960E94080160E089E00E94F60085E071
S11303A091E00E9408012091240130912501ADECD7
S11303B0BCEC0E9481064AE0BE016F5F7F4F9695B8
S11303C0879596958795969587950E949006CE0178
S11303D001960E9408018CE20E940401E09124012C
S11303E0F09125019F01ADECBCEC0E94810696952D
S11303F0879596958795969587959C01220F331F2F
S1130400880F991F880F991F880F991F820F931FB8
S11304104AE0BE016F5F7F4F9F01281B390BC90162
S11304200E949006CE0101960E94080161E080E0DE
S11304300E94F60088E091E00E94080120912201C8
S113044030912301ADECBCEC0E9481064AE0BE0170
S11304506F5F7F4F96958795969587959695879527
S11304600E949006CE0101960E9408018CE20E942F
S11304700401E0912201F09123019F01ADECBCEC59
S11304800E9481069695879596958795969587956A
S11304909C01220F331F880F991F880F991F880F03
S11304A0991F820F931F4AE0BE016F5F7F4F9F0128
S11304B0281B390BC9010E949006CE0101960E94A7
S11304C0080162960FB6F894DEBF0FBECDBFDF9170
S11304D0CF9108958CE00E94170180E40E94F200FD
S11304E080E80E94F2000E946D01089564E084E2B5
S11304F090E00E94530062E087E290E00E94530083
S113050063E087E290E00E94530064E085E290E0BB
S11305100E946C0062E088E290E00E946C0063E05C
S113052088E290E00E946C000895ECE7F0E080819E
S11305308064808380818F7780838081807F8083C3
S1130540EAE7F0E08081806880838081886080832E
S113055080818760808308950E94910487E690E0FB
S11305600E9437050E9476020E9495020E946A0248
S11305707894089570E08617970758F428B181E0BD
S113058090E002C0880F991F4A95E2F7822B88B940
S1130590089528B181E090E002C0880F991F4A9520
S11305A0E2F78095822388B9089562E085E290E0BD
S11305B00E946C008FE795E20197F1F700C00000FC
S11305C062E085E290E00E945F008FE599E0019788
S11305D0F1F700C000009FE724ED80E09150204037
S11305E08040E1F700C0000008950E94AC0200EFD3
S11305F018ED0F2EF0EFCF2EF8EDDF2EF02D0F2E8D
S1130600F0EFEF2EF8EDFF2EF02D809120018823DE
S113061091F0C0912601D0912701EC16FD0649F016
S113062042E060E980912201909123010E94BA0284
S11306307E011092200180912101882391F0C091C4
S11306402401D0912501CC16DD0649F043E068EC85
S113065080912201909123010E94BA026E011092AE
S1130660210180911F01882381F2C0912201D09140
S113067023010C171D0789F0CC3281E0D80730F430
S113068044E06CE2CE010E94BA0208C0C13283E0A9
S1130690D80720F00E94D50201C0E80110921F0182
S11306A08E01B3CFFF920F931F93CF93DF931092DA
S11306B0210188EB0E94A004813021F40E94DB0414
S11306C080E03DC080E00E94BD0489EB0E94A0044C
S11306D00E94C704F82E0E94C704C82F0E94C704B2
S11306E0082F0E94C704182F0E94D104D82F0E94FB
S11306F0DB048D2F90E02C2F30E02F0D311D200FC7
S1130700311D210F311D82179307B9F481E08093C5
S11307102101802F90E09C01220F331F880F991F25
S1130720880F991F880F991F820F931F810F911DA6
S1130730909325018093240102C010922101DF913E
S1130740CF911F910F91FF90089580FF1DC0969542
S11307508795BC01660F771F880F991F880F991F13
S1130760880F991F680F791F6B5F7F4F80E090E0BF
S11307700E94F3052AE939E949E95FE30E94520539
S11307800E94C405CB01089596958795BC01660F18
S1130790771F880F991F880F991F880F991F680F5B
S11307A0791F80E090E00E94F3052AE939E949E9DC
S11307B05FE30E9452050E94C405CB010895CF93C4
S11307C0DF9310921F0180911E01882319F081305C
S11307D069F027C086E40E94A00481E10E94BD0460
S11307E00E94DB0481E080931E011DC087E40E9407
S11307F0A0040E94C70480E0C82FD82F0E94D1040F
S1130800C80FD11D0E94DB04CE010E94A503909362
S113081023018093220181E080931F0110921E0125
S113082002C010921E01DF91CF9108951F920F9282
S11308300FB60F9211242F933F934F935F936F93AF
S11308407F938F939F93AF93BF93EF93FF93EAE7C5
S1130850F0E08081806480838091000190910101A7
S1130860049741F40E94DF030E9452031092010195
S113087010920001809100019091010101969093E2
S1130880010180930001FF91EF91BF91AF919F917E
S11308908F917F916F915F914F913F912F910F9025
S11308A00FBE0F901F9018951F920F920FB60F92C4
S11308B011242F933F934F935F936F937F938F9361
S11308C09F93AF93BF93EF93FF930E946D01FF91AA
S11308D0EF91BF91AF919F918F917F916F915F91B4
S11308E04F913F912F910F900FBE0F901F9018952D
S11308F01F920F920FB60F9211248F939F938091A2
S1130900780090917900909327018093260181E0EB
S1130910809320019F918F910F900FBE0F901F9095
S1130920189587B18F7C87B988B1806388B9E9EB62
S1130930F0E080818C7F808388E98093B8000895FB
S113094094EA9093BC009091BC009923E4F78093BF
S1130950BB0084E88093BC008091BC008823E4F74A
S11309608091B900887F883121F0803421F480E0BF
S1130970089580E0089581E008958093BB0084E8A1
S11309808093BC008091BC008823E4F7089584EC34
S11309908093BC008091BC008823E4F78091BB0065
S11309A0089584E88093BC008091BC008823E4F718
S11309B08091BB00089584E98093BC0008951F9240
S11309C00F920FB60F9211242F938F939F93EF934F
S11309D0FF938091C0002091C6008C71E0912A01A0
S11309E0EF5FEF7190912901E91739F0E0932A0143
S11309F0F0E0E35DFE4F208301C082E09091280186
S1130A00892B80932801FF91EF919F918F912F91D2
S1130A100F900FBE0F901F9018951F920F920FB654
S1130A200F9211248F939F93EF93FF9390912C0136
S1130A3080912B01981769F0E0912B01EF5FEF7122
S1130A40E0932B01F0E0E35BFE4F80818093C600CE
S1130A5005C0E1ECF0E080818F7D8083FF91EF9110
S1130A609F918F910F900FBE0F901F901895109229
S1130A702C0110922B0110922A0110922901282F87
S1130A80392F33231CF422E02093C00090789093F4
S1130A90C5008093C40088E98093C10086E08093F8
S1130AA0C20008950E9466050C9447060E94400601
S1130AB058F00E94390640F029F45F3F29F00C9465
S1130AC0300651110C947B060C9436060E9458068D
S1130AD068F39923B1F3552391F3951B550BBB2769
S1130AE0AA2762177307840738F09F5F5F4F220FAE
S1130AF0331F441FAA1FA9F335D00E2E3AF0E0E8A5
S1130B0032D091505040E695001CCAF72BD0FE2FEE
S1130B1029D0660F771F881FBB1F26173707480782
S1130B20AB07B0E809F0BB0B802DBF01FF2793583A
S1130B305F4F3AF09E3F510578F00C9430060C94C8
S1130B407B065F3FE4F3983ED4F3869577956795EB
S1130B50B795F7959F5FC9F7880F911D969587956F
S1130B6097F90895E1E0660F771F881FBB1F62178E
S1130B7073078407BA0720F0621B730B840BBA0B4C
S1130B80EE1F88F7E09508950E94600688F09F574D
S1130B9098F0B92F9927B751B0F0E1F0660F771F9D
S1130BA0881F991F1AF0BA95C9F714C0B13091F093
S1130BB00E947A06B1E008950C947A06672F782F84
S1130BC08827B85F39F0B93FCCF386957795679558
S1130BD0B395D9F73EF490958095709561957F4FC4
S1130BE08F4F9F4F0895E89409C097FB3EF490956A
S1130BF08095709561957F4F8F4F9F4F9923A9F0F2
S1130C00F92F96E9BB279395F69587957795679580
S1130C10B795F111F8CFFAF4BB0F11F460FF1BC0C4
S1130C206F5F7F4F8F4F9F4F16C0882311F096E957
S1130C3011C0772321F09EE8872F762F05C0662305
S1130C4071F096E8862F70E060E02AF09A95660FBE
S1130C50771F881FDAF7880F9695879597F9089577
S1130C6097F99F6780E870E060E008959FEF80EC5B
S1130C70089500240A9416161706180609060895FE
S1130C8000240A9412161306140605060895092E64
S1130C900394000C11F4882352F0BB0F40F4BF2BD3
S1130CA011F460FF04C06F5F7F4F8F4F9F4F089513
S1130CB057FD9058440F551F59F05F3F71F0479509
S1130CC0880F97FB991F61F09F3F79F087950895EE
S1130CD0121613061406551FF2CF4695F1DF08C00D
S1130CE0161617061806991FF1CF8695710561052A
S1130CF008940895E894BB2766277727CB0197F9D2
S1130D000895A29FB001B39FC001A39F700D811DE0
S1130D101124911DB29F700D811D1124911D089500
S1130D20BB274A3031F4992322F4BDE29095819592
S1130D309F4F0C949C06BB27FB015527AA27880FBD
S1130D40991FAA1FA41710F0A41B83955051B9F73B
S1130D50A05DAA3308F0A95DA193009779F7B111BA
S1130D60B1931192CB010C94B506DC01FC01672F01
S1130D7071917723E1F7329704C07C916D9370836E
S1110D806291AE17BF07C8F30895F894FFCF31
S1130D8E0100483A00543A004C3A003030303030CA
S1110D9E303030303030303030303030000003
S9030000FC
