S0180000477265656E686F75736553797374656D2E7372656372
S11300000C94B1000C94CE000C94CE000C94CE0051
S11300100C94CE000C94CE000C94CE000C94CE0024
S11300200C94CE000C94CE000C94CE000C94CE0014
S11300300C94CE000C945C030C94CE000C94CE0073
S11300400C94A8030C94CE000C944D020C947B02E7
S11300500C94CE000C94DC030C94CE000C94CE00D3
S11300600C94CE000C94CE0000407A10F35A00A0F9
S1130070724E18090010A5D4E80000E8764817006D
S113008000E40B54020000CA9A3B000000E1F505AD
S1130090000080969800000040420F000000A086F7
S11300A001000000102700000000E8030000000029
S11300B06400000000000A000000000001000000CD
S11300C000002C76D888DC674F0823DFC1DFAE59E7
S11300D0E1B1B796E5E3E453C63AE651997696E87A
S11300E0E6C28426EB898C9B62ED407C6FFCEFBCFE
S11300F09C9F40F2BAA56FA5F490055A2AF75C9329
S11301006B6CF9676DC11BFCE0E40D47FEF520E65E
S1130110B500D0ED902E0300943577050080841E41
S1130120080000204E0A000000C80C333333330F9C
S1130130986E12831141EF8D2114893BE65516CF39
S1130140FEE6DB18D1844B381BF77C1D901DA4BB45
S1130150E424203284725E228100C9F124ECA1E5FA
S11301603D2711241FBECFEFD8E0DEBFCDBF11E085
S1130170A0E0B1E0E4E0F6E102C005900D92A63201
S1130180B107D9F721E0A6E2B1E001C01D92A6377C
S1130190B207E1F70E94F4020C94000B0C940000E7
S11301A0FC01408121E030E002C0220F331F6A9538
S11301B0E2F7242B20830895FC01908121E030E0B4
S11301C002C0220F331F6A95E2F72095292320836A
S11301D00895FC01408121E030E002C0220F331F6A
S11301E06A95E2F7242B20830895FC01408181E085
S11301F090E09C01062E02C0220F331F0A94E2F7FE
S1130200842F90E08223932302C0959587956A9565
S1130210E2F7089585B1826085B985E08A95F1F7A2
S1130220000085B18D7F85B90895CF93C82F6623CB
S113023021F085B1816085B903C085B18E7F85B910
S11302408AB180618AB98AB180628AB98AB18064CC
S11302508AB98AB180688AB98BB18F778BB98BB12F
S11302608F7B8BB98BB18F7D8BB98BB18F7E8BB923
S1130270CC231CF48BB180688BB9C6FF03C08BB14F
S113028080648BB9C5FF03C08BB180628BB9C4FF96
S113029003C08BB180618BB90E940A018BB18F7747
S11302A08BB98BB18F7B8BB98BB18F7D8BB98BB1B4
S11302B08F7E8BB9C3FF03C08BB180688BB9C2FF3B
S11302C003C08BB180648BB9C1FF03C08BB1806262
S11302D08BB9C0FF03C08BB180618BB90E940A0146
S11302E08BB180618BB98BB180628BB98BB1806427
S11302F08BB98BB180688BB987EB9BE00197F1F7E1
S113030000C00000CF91089560E00E941501089597
S1130310611104C080580E948401089580540E9491
S11303208401089581E00E948401089561E00E949F
S113033015010895CF93DF93FC0103C00E94960139
S1130340FE01EF01219680818111F8CFDF91CF91D9
S11303500895CF93C82F84B1816084B98AB1806233
S11303608AB984B1826084B98AB180618AB98AB158
S113037080628AB98AB180648AB98AB180688AB98C
S11303808FEF99EF0197F1F700C000008BB1806205
S11303908BB98BB180618BB90E940A018FE19EE415
S11303A00197F1F700C000000E940A018FEF90E06E
S11303B00197F1F700C000000E940A018FEF90E05E
S11303C00197F1F700C000008BB18F7E8BB90E94BA
S11303D00A018FEF90E00197F1F700C0000088E276
S11303E00E94840188E00E9484010E94920186E0B8
S11303F00E9484018C2F0E948401CF91089587B1BB
S11304008F7C87B988B1806388B9E9EBF0E080819B
S11304108C7F808388E98093B800089594EA909350
S1130420BC009091BC009923E4F78093BB0084E85E
S11304308093BC008091BC008823E4F78091B900CC
S1130440887F883121F0803421F480E0089580E0B1
S1130450089581E008958093BB0084E88093BC00F4
S11304608091BC008823E4F7089584EC8093BC0059
S11304708091BC008823E4F78091BB00089584E850
S11304808093BC008091BC008823E4F78091BB007A
S1130490089584E98093BC0008951F920F920FB6CB
S11304A00F9211242F938F939F93EF93FF93809137
S11304B0C0002091C6008C71E0912801EF5FEF71BC
S11304C090912701E91739F0E0932801F0E0E55D08
S11304D0FE4F208301C082E090912601892B8093F6
S11304E02601FF91EF919F918F912F910F900FBE55
S11304F00F901F9018951F920F920FB60F92112410
S11305008F939F93EF93FF9390912A0180912901F8
S1130510981769F0E0912901EF5FEF71E0932901E9
S1130520F0E0E55BFE4F80818093C60005C0E1ECFE
S1130530F0E080818F7D8083FF91EF919F918F9177
S11305400F900FBE0F901F90189585B58D7F85BDB8
S113055085B5856085BDEEE6F0E0808181608083AD
S1130560E1E8F0E080818B7F8083808183608083F9
S1130570EFE6F0E0808181608083089565E084E2A5
S113058090E00E94D00063E084E290E00E94D000FA
S113059064E084E290E00E94D00063E08AE290E0AC
S11305A00E94D00062E08AE290E00E94D0000895A8
S11305B00E94A5020E94FF010E9425050E94BE021E
S11305C00E9496046AE770E08CE790E00E9427049A
S11305D062E084E290E00E940F0662E085E290E02F
S11305E00E94D905789408950E94D802CFEFDFEFD6
S11305F0CC24CA94DC2CF12CE12C812C712C80911C
S11306006C01882349F190907201A0907301B0901D
S1130610740110917501292D3A2D4B2D512F6F2DF9
S11306207E2D882D972D0E947F06882399F00F2E0A
S1130630FBE2EF2EF12CF02D03E02BE230E042E060
S1130640692D7A2D8B2D912F0E949C05F92CEA2C73
S11306508B2C712E10926C0180916D01882399F07E
S1130660A0907001B0907101CA14DB0451F005E24E
S113067010E023E045E250E064E0C5010E947E05FD
S1130680650110926D0180916B01882309F4B7CF45
S1130690A0906E01B0906F01CA15DB0551F005E220
S11306A010E022E045E250E065E0C5010E945B05F0
S11306B0E50110926B01A3CF1F920F920FB60F9218
S11306C011242F933F934F935F936F937F938F9353
S11306D09F93AF93BF93EF93FF9380910001823078
S11306E009F58BE691E00E94A0049C0190916B01B6
S11306F0992321F030936F0120936E018DE691E0F0
S11307000E943C049C0190916D01992321F0309347
S113071071012093700110920001EAE7F0E08081FA
S113072080648083809100018F5F80930001FF913A
S1130730EF91BF91AF919F918F917F916F915F9155
S11307404F913F912F910F900FBE0F901F901895CE
S11307501F920F920FB60F9211242F933F934F9332
S11307605F936F937F938F939F93AF93BF93EF9315
S1130770FF9320916E0130916F014091700150916F
S11307807101609172017091730180917401909173
S113079075010E94C104FF91EF91BF91AF919F91A8
S11307A08F917F916F915F914F913F912F910F9016
S11307B00FBE0F901F9018951F920F920FB60F92B5
S11307C011242F933F934F935F936F937F938F9352
S11307D09F93AF93BF93EF93FF93F8946091780046
S11307E07091790080E090E00E94F60620E030EC01
S11307F04FE754E40E94840620E030E048EC52E4E1
S11308000E94AD079B01AC0160E070E088EC92E4CB
S11308100E941206609372017093730180937401B5
S11308209093750181E080936C017894FF91EF912E
S1130830BF91AF919F918F917F916F915F914F91F4
S11308403F912F910F900FBE0F901F901895DC01D0
S1130850FB018C9180648C938C918F778C938C9119
S1130860807F8C938081806880838081886080838E
S11308708081876080830895DF92EF92FF920F93C7
S11308801F93CF93DF938C01FC01108288EB0E94AD
S11308900E02813029F40E94490280E090E03EC0BB
S11308A080E00E942B0289EB0E940E020E94350216
S11308B0E82E0E943502D82F0E943502C82F0E94CC
S11308C03502F82E0E943F02D82E0E9449028D2D37
S11308D090E04D2F50E04E0D511D2C2FCC0F330BBB
S11308E0420F531F6F2DFF0C770B460F571F8417B2
S11308F0950721F481E0F801808302C0F801108299
S1130900C901880F991F220F331F220F331F220F93
S1130910331F280F391FCB01820F931FDF91CF9113
S11309201F910F91FF90EF90DF90089586E40E944D
S11309300E0280E10E942B020E944902089508954C
S11309400F931F93CF93DF938C01FC01108287E4F4
S11309500E940E020E943502C82FD0E0DC2FCC2763
S11309600E943F02C80FD11D0E94490281E0F80194
S11309708083CE010E949F04DF91CF911F910F913C
S113098008958F929F92AF92BF92EF92FF920F932E
S11309901F93CF93DF934B015C017A01E90160E07F
S11309A080E00E9488018CE191E00E949A0103E1B9
S11309B011E022E043E0C501B4010E944208C801ED
S11309C00E949A0160E089E00E9488018FE191E031
S11309D00E949A01C7016AE070E00E941A089B0114
S11309E08C014AE06AE071E0C9010E9462088AE071
S11309F091E00E949A018EE20E9496014AE06AE028
S1130A0071E0C8010E9462088AE091E00E949A01A4
S1130A1061E080E00E94880182E291E00E949A01F4
S1130A204AE061E071E0CE010E94620881E091E059
S1130A300E949A01DF91CF911F910F91FF90EF9047
S1130A40BF90AF909F908F9008958CE00E94A90171
S1130A5080E40E94840180E80E94840121E030E067
S1130A6041E050E060E070E080E89FE30E94C10450
S1130A7008951F93CF93DF93EC01162F0E94F50086
S1130A80811104C0612FCE010E94E900DF91CF9152
S1130A901F9108951F93CF93DF93EC01162F0E94AB
S1130AA0F500813021F4612FCE010E94DC00DF913A
S1130AB0CF911F910895FF920F931F93CF93DF93CC
S1130AC0F62EEA0185569109833F914048F0622F42
S1130AD0C8010E94D9056F2DCE010E94390508C0B6
S1130AE0622FC8010E94F3056F2DCE010E944A05B2
S1130AF0DF91CF911F910F91FF9008950F931F9352
S1130B00CF93C22F8B3F910520F4CA010E9439056F
S1130B100FC08E35914028F06C2FC8010E94390512
S1130B2007C0CA010E944A056C2FC8010E944A05E9
S1130B30CF911F910F9108958F929F92AF92BF9280
S1130B40EF92FF920F931F93CF93DF934B015C01BE
S1130B50142FE90120E030E040E251E40E947F06D6
S1130B6018162CF0612FCE010E94390517C020E021
S1130B7030E048E452E4C501B4010E94A807882388
S1130B802CF0602FC7010E94390508C0612FCE01E7
S1130B900E944A05602FC7010E944A05DF91CF9148
S1130BA01F910F91FF90EF90BF90AF909F908F9007
S1130BB00895CF93C62F85E290E00E94E90089EE64
S1130BC08A95F1F700006C2F85E290E00E94DC002A
S1130BD094E69A95F1F78DE892E10197F1F700C058
S1130BE00000CF910895CF93C62F85E290E00E9434
S1130BF0E90087E592E00197F1F700C000006C2F4F
S1130C0085E290E00E94DC0098EC9A95F1F789E97E
S1130C1090E10197F1F700C00000CF9108950E9480
S1130C20D00008955058BB27AA270E942A060C9486
S1130C306E070E94600738F00E94670720F039F4BD
S1130C409F3F19F426F40C945D070EF4E095E7FB3E
S1130C500C945707E92F0E947F0758F3BA176207CD
S1130C6073078407950720F079F4A6F50C94A1077F
S1130C700EF4E0950B2EBA2FA02D0B01B9019001B3
S1130C800C01CA01A0011124FF27591B99F0593FF7
S1130C9050F4503E68F11A16F040A22F232F342F3F
S1130CA04427585FF3CF469537952795A795F0408D
S1130CB05395C9F77EF41F16BA0B620B730B840BA2
S1130CC0BAF09150A1F0FF0FBB1F661F771F881F5A
S1130CD0C2F70EC0BA0F621F731F841F48F48795B2
S1130CE077956795B795F7959E3F08F0B0CF9395A4
S1130CF0880F08F09927EE0F9795879508950E941D
S1130D00330708F481E008950E9498060C946E0756
S1130D100E94670758F00E94600740F029F45F3F83
S1130D2029F00C94570751110C94A2070C945D07F9
S1130D300E947F0768F39923B1F3552391F3951B20
S1130D40550BBB27AA2762177307840738F09F5FE8
S1130D505F4F220F331F441FAA1FA9F335D00E2E55
S1130D603AF0E0E832D091505040E695001CCAF7C2
S1130D702BD0FE2F29D0660F771F881FBB1F261785
S1130D8037074807AB07B0E809F0BB0B802DBF015C
S1130D90FF2793585F4F3AF09E3F510578F00C942B
S1130DA057070C94A2075F3FE4F3983ED4F386956B
S1130DB077956795B795F7959F5FC9F7880F911D4C
S1130DC09695879597F90895E1E0660F771F881F38
S1130DD0BB1F621773078407BA0720F0621B730BEB
S1130DE0840BBA0BEE1F88F7E0950895E89409C0C8
S1130DF097FB3EF490958095709561957F4F8F4F4A
S1130E009F4F9923A9F0F92F96E9BB279395F6955F
S1130E10879577956795B795F111F8CFFAF4BB0FDD
S1130E2011F460FF1BC06F5F7F4F8F4F9F4F16C041
S1130E30882311F096E911C0772321F09EE8872FCB
S1130E40762F05C0662371F096E8862F70E060E087
S1130E502AF09A95660F771F881FDAF7880F969500
S1130E60879597F90895990F0008550FAA0BE0E8A4
S1130E70FEEF16161706E807F907C0F01216130658
S1130E80E407F50798F0621B730B840B950B39F498
S1130E900A2661F0232B242B252B21F408950A26FE
S1130EA009F4A140A6958FEF811D811D089597F93E
S1130EB09F6780E870E060E008959FEF80EC0895FC
S1130EC000240A9416161706180609060895002425
S1130ED00A9412161306140605060895092E03949F
S1130EE0000C11F4882352F0BB0F40F4BF2B11F413
S1130EF060FF04C06F5F7F4F8F4F9F4F089557FD72
S1130F009058440F551F59F05F3F71F04795880F73
S1130F1097FB991F61F09F3F79F08795089512160A
S1130F2013061406551FF2CF4695F1DF08C01616B6
S1130F3017061806991FF1CF869571056105089467
S1130F400895E894BB2766277727CB0197F908957E
S1130F500E94330708F48FEF08950E94C0070C9491
S1130F606E070E94600738F00E94670720F09523FF
S1130F7011F00C9457070C945D0711240C94A207EC
S1130F800E947F0770F3959FC1F3950F50E0551FA2
S1130F90629FF001729FBB27F00DB11D639FAA27CA
S1130FA0F00DB11DAA1F649F6627B00DA11D661F19
S1130FB0829F2227B00DA11D621F739FB00DA11D3A
S1130FC0621F839FA00D611D221F749F3327A00DF4
S1130FD0611D231F849F600D211D822F762F6A2F90
S1130FE011249F5750409AF0F1F088234AF0EE0FF5
S1130FF0FF1FBB1F661F771F881F91505040A9F722
S11310009E3F510580F00C9457070C94A2075F3F54
S1131010E4F3983ED4F3869577956795B795F7955D
S1131020E7959F5FC1F7FE2B880F911D96958795D5
S113103097F9089597FB072E16F4009407D077FDCF
S113104009D00E942E0807FC05D03EF490958195A6
S11310509F4F0895709561957F4F0895AA1BBB1B00
S113106051E107C0AA1FBB1FA617B70710F0A61BA4
S1131070B70B881F991F5A95A9F780959095BC01C5
S1131080CD010895EF920F931F93CF93DF93E8015F
S113109047FD02C034E001C034E1042E000C550BBE
S11310A057FF03C0519541955109E32E022F242F78
S11310B0AE010E948708CE01DF91CF911F910F915D
S11310C0EF900895BB274A3031F4992322F4BDE20E
S11310D0909581959F4F0C946E08BB27FB01552773
S11310E0AA27880F991FAA1FA41710F0A41B839581
S11310F05051B9F7A05DAA3308F0A95DA1930097F8
S113110079F7B111B1931192CB010C94B90AA9E00A
S1131110B0E0EDE8F8E00C94CF0A6A01122FB02E8B
S11311202BE3201720F0FF24F394F00E02C02CE3ED
S1131130F22E0F2D27E0AE014F5F5F4F0E94E109B1
S1131140BC014981842F8970813031F0E1FC06C0F3
S1131150E0FE06C090E205C09DE203C09BE201C030
S113116090E05E2D507143FF3CC0911102C083E0BA
S113117001C084E0811718F4212F281B01C020E04E
S113118051110BC0F601822F30E2882319F03193FC
S11311908150FBCFC20ED11C20E0992329F0D60147
S11311A09C93F60131966F01C6010396E2FE0AC0D4
S11311B03EE4D6013C9341E411964C931197129668
S11311C03C9306C03EE6F601308341E64183328318
S11311D0FC01322F40E2332309F442C041933150E1
S11311E0FACF42FF44C0911102C083E001C084E001
S11311F0811718F4212F281B01C020E051110BC0C6
S1131200F601822F30E2882319F031938150FBCF0D
S1131210C20ED11C20E0992329F0D6019C93F6013B
S113122031966F01C6010396E2FE0BC039E4D60184
S11312303C933EE411963C93119736E412963C930A
S113124007C039E6F60130833EE6318336E6328361
S1131250FC01322F40E2332319F041933150FBCF8C
S1131260FC01E20FF11D10828EEF9FEFA6C021E07A
S113127030E0911102C020E030E0161617061CF48D
S1131280FB01319602C0E1E0F0E02E0F3F1FBB20CE
S113129021F0EB2DF0E0319602C0E0E0F0E02E0FFB
S11312A03F1FE12FF0E02E173F071CF4121B212FE4
S11312B001C020E08E2D887159F4F601822F30E2AE
S11312C0882319F031938150FBCFC20ED11C20E04A
S11312D0992329F0D6019C93F60131966F0151119F
S11312E00BC0F601822F90E3882319F0919381506B
S11312F0FBCFC20ED11C20E00F2D060F9A81342F94
S1131300307144FF03C0913309F40150101624F4E2
S1131310093018F008E001C001E0AB0177FF02C01A
S113132040E050E0FB01E41BF50BA1E0B0E0AC0FA2
S1131330BD1FEA0FFB1F8EE2A82E4B01801A9108F5
S11313400B2D10E01195019511094F3FBFEF5B077D
S113135021F4D601AC9211966D01641775072CF037
S11313608416950614F4818101C080E3415051092B
S11313703196D60111967D014017510724F0D6010C
S11313808C936701E2CF6417750739F4963320F420
S1131390953319F4311101C081E3F6018083F7011B
S11313A0822F90E2882319F091938150FBCFF701AB
S11313B0E20FF11D108280E090E02996ECE00C949D
S11313C0EB0A283008F027E03327DA01990F311DA2
S11313D087FD916000966105710539F432602E5FD6
S11313E03D9330E32A95E1F708959F3F30F080382C
S11313F07105610509F03C5F3C5F3D93913008F055
S11314008068911DDF93CF931F930F93FF92EF9208
S1131410192F987F9695E92F96959695E90FFF27B2
S1131420EE53FF4F99273327EE24FF24A701E7014A
S113143005900894079428F4360FE71EF81E491FF8
S1131440511D660F771F881F991F0694A1F70590F9
S1131450079428F4E70EF81E491F561FC11D770F85
S1131460881F991F661F0694A1F70590079428F416
S1131470F80E491F561FC71FD11D880F991F661FDD
S1131480771F0694A1F70590079420F4490F561F7F
S1131490C71FD81F990F661F771F881F0694A9F7C7
S11314A084911095177041F0D695C7955795479537
S11314B0F794E7941A95C1F7E8E6F0E0689415907C
S11314C0159135916591959105907FE27395E11899
S11314D0F10A430B560BC90BD009C0F7E10CF11EFE
S11314E0431F561FC91FD01D7EF4703311F48A9513
S11314F0E6CFE894015030F0080F0AF400270217F1
S113150008F4202F2395022F7A3328F079E37D9372
S11315102A95E9F710C07D932A9589F60694979544
S11315206795379517951794E118F10A430B560BF5
S1131530C90BD00998F023957E9173957A3308F0FE
S113154070E37C932013B8F77E9170617D9330F043
S1131550839571E37D9370E32A95E1F71124EF906D
S1131560FF900F911F91CF91DF91992787FD90955F
S11315700895DC01FC01672F71917723E1F732971D
S113158004C07C916D9370836291AE17BF07C8F35A
S113159008952F923F924F925F926F927F928F9213
S11315A09F92AF92BF92CF92DF92EF92FF920F93EE
S11315B01F93CF93DF93CDB7DEB7CA1BDB0B0FB6F8
S11315C0F894DEBF0FBECDBF09942A8839884888B5
S11315D05F846E847D848C849B84AA84B984C8844B
S11315E0DF80EE80FD800C811B81AA81B981CE0F42
S11315F0D11D0FB6F894DEBF0FBECDBFED01089527
S1071600F894FFCF88
S11316040130303030303030300030303030303031
S1131614303000303030303030303000533A005401
S10916243A004C3A0000FC
S9030000FC
