S0180000477265656E686F75736553797374656D2E7372656372
S11300000C9434000C9451000C9451000C94510045
S11300100C9451000C9451000C9451000C94510018
S11300200C9451000C9451000C9451000C94510008
S11300300C9451000C943B030C9451000C9451000B
S11300400C9474030C9451000C94E6030C94140463
S11300500C9451000C9451000C9451000C945100D8
S11300600C9451000C94510011241FBECFEFD8E022
S1130070DEBFCDBF11E0A0E0B1E0EAE4F1E102C0EF
S113008005900D92A236B107D9F721E0A2E6B1E0BE
S113009001C01D92A03BB207E1F70E9451010C94EC
S11300A0A3080C94000085B1826085B985E08A9527
S11300B0F1F7000085B18D7F85B90895CF93C82FDE
S11300C0662321F085B1816085B903C085B18E7F37
S11300D085B98AB180618AB98AB180628AB98AB1E4
S11300E080648AB98AB180688AB98BB18F778BB9F9
S11300F08BB18F7B8BB98BB18F7D8BB98BB18F7E9D
S11301008BB9CC231CF48BB180688BB9C6FF03C0B8
S11301108BB180648BB9C5FF03C08BB180628BB98E
S1130120C4FF03C08BB180618BB90E9453008BB1B3
S11301308F778BB98BB18F7B8BB98BB18F7D8BB95B
S11301408BB18F7E8BB9C3FF03C08BB180688BB931
S1130150C2FF03C08BB180648BB9C1FF03C08BB1F4
S113016080628BB9C0FF03C08BB180618BB90E94E0
S113017053008BB180618BB98BB180628BB98BB129
S113018080648BB98BB180688BB987EB9BE0019756
S1130190F1F700C00000CF91089560E00E945E0076
S11301A00895611104C080580E94CD0008958054C0
S11301B00E94CD00089581E00E94CD00089561E081
S11301C00E945E000895CF93DF93FC0103C00E9458
S11301D0DF00FE01EF01219680818111F8CFDF91CC
S11301E0CF910895CF93C82F84B1816084B98AB127
S11301F080628AB984B1826084B98AB180618AB923
S11302008AB180628AB98AB180648AB98AB1806805
S11302108AB98FEF99EF0197F1F700C000008BB115
S113022080628BB98BB180618BB90E9453008FE1DE
S11302309EE40197F1F700C000000E9453008FEF85
S113024090E00197F1F700C000000E9453008FEF87
S113025090E00197F1F700C000008BB18F7E8BB95D
S11302600E9453008FEF90E00197F1F700C0000067
S113027088E20E94CD0088E00E94CD000E94DB004D
S113028086E00E94CD008C2F0E94CD00CF9108956E
S113029060E080E00E94D10082E091E00E94E300EF
S11302A00895CF93DF93CDB7DEB762970FB6F89476
S11302B0DEBF0FBECDBF0E94980387E690E00E9488
S11302C03E048CE00E94F20080E40E94CD0080E8AD
S11302D00E94CD0085B58D7F85BD85B5856085BDC2
S11302E0EEE6F0E0808181608083E1E8F0E08081E7
S11302F08B7F8083808183608083EFE6F0E0808160
S113030081608083789487E091E00E946E040E946B
S1130310480182E1EFE4F1E0DE01119601900D92D3
S11303208A95E1F70F2EF0EFAF2EF8EDBF2EF02DEA
S11303300F2EF0EFCF2EF8EDDF2EF02D0F2EF0EF75
S1130340EF2EF8EDFF2EF02D80916601882309F43D
S113035078C00091690110916A01E016F106A1F1DB
S11303609801ADECBCEC0E94AA05AC0156954795EA
S113037056954795569547959A01220F331FCA0102
S1130380880F991F880F991F880F991F820F931F39
S11303909801281B390BC9019F932F935F934F93A7
S11303A082E191E09F938F93CE0101967C019F930C
S11303B08F930E94B905C7010E946E040FB6F8948A
S11303C0DEBF0FBECDBF78010091670110916801B7
S11303D0C016D106A1F19801ADECBCEC0E94AA05AF
S11303E0AC015695479556954795569547959A016C
S11303F0220F331FCA01880F991F880F991F880F76
S1130400991F820F931F9801281B390BC9019F93D1
S11304102F935F934F9384E291E09F938F93CE0148
S113042001966C019F938F930E94B905C6010E94A7
S11304306E040FB6F894DEBF0FBECDBF68011092F4
S1130440660180916301882309F47ECF00916401E1
S113045010916501A016B106A1F19801ADECBCECB8
S11304600E94AA05AC015695479556954795569511
S113047047959A01220F331FCA01880F991F880FCD
S1130480991F880F991F820F931F9801281B390BFE
S1130490C9019F932F935F934F9389E391E09F93B7
S11304A08F93CE0101965C019F938F930E94B905AF
S11304B0C5010E946E040FB6F894DEBF0FBECDBF17
S11304C058011092630140CFFF920F931F93CF9373
S11304D0DF931092660188EB0E94A703813021F418
S11304E00E94E20380E050C080E00E94C40389EBD4
S11304F00E94A7030E94CE03182F0E94CE03D82F78
S11305000E94CE03F82E0E94CE03082F0E94D80327
S1130510C82F0E94E2038C2F90E02D2F30E0210F92
S1130520311D2F0D311D200F311D8217930751F5F9
S113053081E0809366018F2D90E09C01220F331F90
S1130540880F991F880F991F880F991F820F931F77
S1130550800F911D9093680180936701812F90E033
S11305609C01220F331F880F991F880F991F880F32
S1130570991F820F931F8D0F911D90936A01809391
S1130580690102C010926601DF91CF911F910F9112
S1130590FF90089580FF1DC096958795BC01660F56
S11305A0771F880F991F880F991F880F991F680F4D
S11305B0791F6B5F7F4F80E090E00E941C052AE961
S11305C039E949E95FE30E947B040E94ED04CB0111
S11305D0089596958795BC01660F771F880F991F1C
S11305E0880F991F880F991F680F791F80E090E08A
S11305F00E941C052AE939E949E95FE30E947B046A
S11306000E94ED04CB010895CF93DF931092630110
S113061080916201882319F0813069F027C086E453
S11306200E94A70381E10E94C4030E94E20381E0C7
S1130630809362011DC087E40E94A7030E94CE0339
S113064080E0C82FD82F0E94D803C80FD11D0E9464
S1130650E203CE010E94CA02909365018093640173
S113066081E0809363011092620102C010926201E2
S1130670DF91CF9108951F920F920FB60F9211241C
S11306802F933F934F935F936F937F938F939F9396
S1130690AF93BF93EF93FF93809100019091010179
S11306A0049741F40E9404030E9464021092010121
S11306B010920001809100019091010101969093A4
S11306C0010180930001FF91EF91BF91AF919F9140
S11306D08F917F916F915F914F913F912F910F90E7
S11306E00FBE0F901F9018951F920F920FB60F9286
S11306F011242F933F934F935F936F937F938F9323
S11307009F93AF93BF93EF93FF930E944801FF9190
S1130710EF91BF91AF919F918F917F916F915F9175
S11307204F913F912F910F900FBE0F901F901895EE
S113073087B18F7C87B988B1806388B9E9EBF0E031
S113074080818C7F808388E98093B800089594EA3F
S11307509093BC009091BC009923E4F78093BB0074
S113076084E88093BC008091BC008823E4F78091E6
S1130770B900887F883121F0803421F480E0089525
S113078080E0089581E008958093BB0084E880931D
S1130790BC008091BC008823E4F7089584EC809326
S11307A0BC008091BC008823E4F78091BB000895CD
S11307B084E88093BC008091BC008823E4F7809196
S11307C0BB00089584E98093BC0008951F920F92A2
S11307D00FB60F9211242F938F939F93EF93FF9350
S11307E08091C0002091C6008C71E0916D01EF5F93
S11307F0EF7190916C01E91739F0E0936D01F0E02D
S1130800E059FE4F208301C082E090916B01892B57
S113081080936B01FF91EF919F918F912F910F9096
S11308200FBE0F901F9018951F920F920FB60F9244
S113083011248F939F93EF93FF9390916F01809175
S11308406E01981769F0E0916E01EF5FEF71E0932C
S11308506E01F0E0E057FE4F80818093C60005C032
S1130860E1ECF0E080818F7D8083FF91EF919F9197
S11308708F910F900FBE0F901F90189510926F01DB
S113088010926E0110926D0110926C01282F392F75
S113089033231CF422E02093C00090789093C50089
S11308A08093C40088E98093C10086E08093C200ED
S11308B0089520916F012F5F2F7190916E01291778
S11308C0E1F3E22FF0E0E057FE4F808320936F01C5
S11308D0E1ECF0E08081806280830895CF93DF9320
S11308E0EC0103C021960E94590488818111FACF3A
S11308F0DF91CF9108950E948F040C9470050E949B
S1130900690558F00E94620540F029F45F3F29F020
S11309100C94590551110C94A4050C945F050E9484
S1130920810568F39923B1F3552391F3951B550B76
S1130930BB27AA2762177307840738F09F5F5F4FAE
S1130940220F331F441FAA1FA9F335D00E2E3AF0ED
S1130950E0E832D091505040E695001CCAF72BD005
S1130960FE2F29D0660F771F881FBB1F2617370756
S11309704807AB07B0E809F0BB0B802DBF01FF2788
S113098093585F4F3AF09E3F510578F00C94590507
S11309900C94A4055F3FE4F3983ED4F386957795D1
S11309A06795B795F7959F5FC9F7880F911D969541
S11309B0879597F90895E1E0660F771F881FBB1F9D
S11309C0621773078407BA0720F0621B730B840B4A
S11309D0BA0BEE1F88F7E09508950E94890588F008
S11309E09F5798F0B92F9927B751B0F0E1F0660FEF
S11309F0771F881F991F1AF0BA95C9F714C0B13030
S1130A0091F00E94A305B1E008950C94A305672F0B
S1130A10782F8827B85F39F0B93FCCF3869577955E
S1130A206795B395D9F73EF4909580957095619547
S1130A307F4F8F4F9F4F0895E89409C097FB3EF472
S1130A4090958095709561957F4F8F4F9F4F992317
S1130A50A9F0F92F96E9BB279395F6958795779595
S1130A606795B795F111F8CFFAF4BB0F11F460FF55
S1130A701BC06F5F7F4F8F4F9F4F16C0882311F0AD
S1130A8096E911C0772321F09EE8872F762F05C0C1
S1130A90662371F096E8862F70E060E02AF09A955C
S1130AA0660F771F881FDAF7880F9695879597F951
S1130AB0089597F99F6780E870E060E008959FEFDC
S1130AC080EC089500240A941616170618060906E1
S1130AD0089500240A9412161306140605060895B0
S1130AE0092E0394000C11F4882352F0BB0F40F438
S1130AF0BF2B11F460FF04C06F5F7F4F8F4F9F4F78
S1130B00089557FD9058440F551F59F05F3F71F0F9
S1130B104795880F97FB991F61F09F3F79F0879560
S1130B200895121613061406551FF2CF4695F1DFE9
S1130B3008C0161617061806991FF1CF8695710579
S1130B40610508940895E894BB2766277727CB01AD
S1130B5097F90895A29FB001B39FC001A39F700DA0
S1130B60811D1124911DB29F700D811D1124911DB1
S1130B700895AEE0B0E0EFEBF5E00C947A080D894F
S1130B801E8986E08C831A8309838FEF9FE79E83F7
S1130B908D83AE01475E5F4F6F89788DCE010196DC
S1130BA00E94DB05EF81F885E00FF11F10822E967D
S1130BB0E4E00C949608ABE0B0E0E1EEF5E00C94D0
S1130BC06C086C017B018A01FC0117821682838107
S1130BD081FFCCC1CE0101963C01F6019381F7015E
S1130BE093FD859193FF81917F01882309F4BAC114
S1130BF0853239F493FD859193FF81917F0185328C
S1130C0029F4B60190E00E94D207E7CF912C212C61
S1130C10312CFFE1F315D8F08B3279F038F48032BF
S1130C2079F08332A1F4232D20611DC08D3261F04F
S1130C30803369F4232D216016C0832D8260382E01
S1130C40E32DE4603E2E2AC0F32DF8601DC037FC6E
S1130C502DC020ED280F2A3040F08E32B9F436FC36
S1130C6081C1232D2064322E19C036FE06C08AE0CD
S1130C70989E200D1124922E11C0EAE02E9E200D84
S1130C801124222EF32DF0623F2E08C08C3621F45D
S1130C90832D8068382E02C0883641F4F70193FD15
S1130CA0859193FF81917F018111B3CF982F9F7D0F
S1130CB09554933028F40C5F1F4F9FE399830DC024
S1130CC0833631F0833771F0833509F059C021C080
S1130CD0F801808189830E5F1F4F88248394912CAF
S1130CE0530113C02801F2E04F0E511CF801A080FB
S1130CF0B18036FE03C0692D70E002C06FEF7FEF54
S1130D00C5010E94C7074C018201F32DFF773F2ED6
S1130D1016C0280122E0420E511CF801A080B180C7
S1130D2036FE03C0692D70E002C06FEF7FEFC5018E
S1130D300E94BC074C01F32DF0683F2E820133FC66
S1130D401BC0822D90E088169906B0F4B60180E2AB
S1130D5090E00E94D2072A94F4CFF50137FC8591E4
S1130D6037FE81915F01B60190E00E94D207211005
S1130D702A9421E0821A91088114910471F7E8C041
S1130D80843611F0893641F5F80137FE07C06081D9
S1130D907181828193810C5F1F4F08C060817181D2
S1130DA0072E000C880B990B0E5F1F4FF32DFF7657
S1130DB03F2E97FF09C090958095709561957F4F60
S1130DC08F4F9F4FF0683F2E2AE030E0A3010E942E
S1130DD00E08882E861845C0853731F4232D2F7EC2
S1130DE0B22E2AE030E025C0932D997FB92E8F369C
S1130DF0C1F018F4883579F0B5C0803719F0883718
S1130E0021F0B0C0E92FE061BE2EB4FE0DC0FB2D71
S1130E10F460BF2E09C034FE0AC0292F2660B22E0A
S1130E2006C028E030E005C020E130E002C020E147
S1130E3032E0F801B7FE07C060817181828193813D
S1130E400C5F1F4F06C06081718180E090E00E5FEF
S1130E501F4FA3010E940E08882E8618FB2DFF77D2
S1130E603F2E36FE0DC0232D2E7FA22E891458F45A
S1130E7034FE0BC032FC09C0832D8E7EA82E05C023
S1130E80B82CA32C03C0B82C01C0B92CA4FE0FC0ED
S1130E90FE01E80DF11D8081803321F49A2D997EA5
S1130EA0A92E09C0A2FE06C0B394B39404C08A2D2F
S1130EB0867809F0B394A3FC11C0A0FE06C0B21456
S1130EC088F4280C922C9B180EC0B21460F4B6015E
S1130ED080E290E00E94D207B394F7CFB21418F4E2
S1130EE02B1802C0982C212CA4FE10C0B60180E35C
S1130EF090E00E94D207A2FE17C0A1FC03C088E7BD
S1130F0090E002C088E590E0B6010CC08A2D867896
S1130F1059F0A1FE02C08BE201C080E2A7FC8DE281
S1130F20B60190E00E94D207891438F4B60180E338
S1130F3090E00E94D2079A94F7CF8A94F301E80DC7
S1130F40F11D8081B60190E00E94D2078110F5CF97
S1130F50222009F442CEB60180E290E00E94D2073A
S1130F602A94F6CFF6018681978102C08FEF9FEF16
S1130F702B96E2E10C948808FC01059061507040C6
S1130F800110D8F7809590958E0F9F1F0895FC014E
S1130F906150704001900110D8F7809590958E0FA4
S1130FA09F1F08950F931F93CF93DF93FB0123811A
S1130FB021FD03C08FEF9FEF2CC022FF16C0468196
S1130FC05781248135814217530744F4A081B181AC
S1130FD09D012F5F3F4F318320838C93268137817E
S1130FE02F5F3F4F3783268314C08B01EC01FB0135
S1130FF00084F185E02D0995892BE1F6D801169638
S11310008D919C911797019617969C938E931697A2
S1131010CE01DF91CF911F910F910895FA01AA2774
S1131020283051F1203181F1E8946F936E7F6E5F27
S11310307F4F8F4F9F4FAF4FB1E03ED0B4E03CD0D5
S1131040670F781F891F9A1FA11D680F791F8A1FB8
S1131050911DA11D6A0F711D811D911DA11D20D01F
S113106009F468943F912AE0269F11243019305DD9
S11310703193DEF6CF010895462F4770405D4193CA
S1131080B3E00FD0C9F7F6CF462F4F70405D4A3317
S113109018F0495D31FD4052419302D0A9F7EACFDF
S11310A0B4E0A6959795879577956795BA95C9F70E
S11310B000976105710508959B01AC010A2E069401
S11310C05795479537952795BA95C9F7620F731FBA
S11310D0841F951FA01D08952F923F924F925F92F7
S11310E06F927F928F929F92AF92BF92CF92DF9234
S11310F0EF92FF920F931F93CF93DF93CDB7DEB799
S1131100CA1BDB0B0FB6F894DEBF0FBECDBF09942C
S11311102A88398848885F846E847D848C849B8483
S1131120AA84B984C884DF80EE80FD800C811B8191
S1131130AA81B981CE0FD11D0FB6F894DEBF0FBEC0
S10D1140CDBFED010895F894FFCF30
S113114A0100746573740047483A20696E69740D26
S113115A0A0048756D69646974793A2025642C25F6
S113116A640D0A0054656D70657261747572653A2E
S113117A2025642C25640D0A004C756D696E65730F
S113118A63656E63653A2025642C25640D0A003074
S113119A3030303030303030303030303030303041
S10511AA00003F
S9030000FC
